:100000000C9454050C947C050C947C050C947C0594
:100010000C947C050C947C050C947C050C947C055C
:100020000C947C050C947C050C947C050C947C054C
:100030000C947C050C947C050C947C050C947C053C
:100040000C9434190C947C050C9402190C94DC1853
:100050000C947C050C947C050C947C050C947C051C
:100060000C947E190C947C0500000000003E5B4F50
:100070005B3E3E6B4F6B3E1C3E7C3E1C183C7E3C08
:10008000181C577D571C1C5E7F5E1C00183C180016
:10009000FFE7C3E7FF0018241800FFE7DBE7FF30A6
:1000A000483A060E2629792926407F050507407F14
:1000B00005253F5A3CE73C5A7F3E1C1C08081C1C87
:1000C0003E7F14227F22145F5F005F5F06097F017D
:1000D0007F006689956A606060606094A2FFA29468
:1000E00008047E040810207E201008082A1C080836
:1000F0001C2A08081E101010100C1E0C1E0C303884
:100100003E3830060E3E0E06000000000000005F84
:1001100000000007000700147F147F14242A7F2AA0
:100120001223130864623649562050000807030062
:10013000001C2241000041221C002A1C7F1C2A08AE
:10014000083E080800807030000808080808000011
:1001500060600020100804023E5149453E00427F85
:10016000400072494949462141494D331814127FD4
:100170001027454545393C4A494931412111090774
:100180003649494936464949291E000014000000F5
:1001900040340000000814224114141414140041C7
:1001A00022140802015909063E415D594E7C121184
:1001B000127C7F494949363E414141227F414141BC
:1001C0003E7F494949417F090909013E4141517337
:1001D0007F0808087F00417F41002040413F017FA8
:1001E000081422417F404040407F021C027F7F0470
:1001F00008107F3E4141413E7F090909063E4151B9
:10020000215E7F09192946264949493203017F01A8
:10021000033F4040403F1F2040201F3F4038403FA9
:10022000631408146303047804036159494D4300BF
:100230007F4141410204081020004141417F0402F6
:10024000010204404040404000030708002054548D
:1002500078407F284444383844444428384444286B
:100260007F385454541800087E090218A4A49C78BE
:100270007F0804047800447D40002040403D007F1A
:100280001028440000417F40007C047804787C08FA
:100290000404783844444438FC18242418182424CE
:1002A00018FC7C08040408485454542404043F44B3
:1002B000243C4040207C1C2040201C3C4030403CE2
:1002C00044281028444C9090907C4464544C440042
:1002D00008364100000077000000413608000201A6
:1002E0000204023C2623263C1EA1A161123A404092
:1002F000207A38545455592155557941225454780F
:1003000042215554784020545579400C1E527212A7
:100310003955555559395454545939555454580030
:1003200000457C410002457D420001457C407D1234
:1003300011127DF0282528F07C5455450020545496
:100340007C547C0A097F4932494949323A44444441
:100350003A324A4848303A4141217A3A424020787C
:10036000009DA0A07D3D4242423D3D4040403D3C7D
:1003700024FF2424487E4943662B2FFC2F2BFF09A2
:1003800029F620C0887E0903205454794100004496
:100390007D413048484A32384040227A007A0A0A81
:1003A000727D0D19317D2629292F282629292926F4
:1003B00030484D4020380808080808080808382F39
:1003C00010C8ACBA2F102834FA00007B00000814C3
:1003D0002A142222142A14085500550055AA55AA99
:1003E00055AAFF55FF55FF000000FF00101010FF39
:1003F00000141414FF001010FF00FF1010F010F094
:10040000141414FC001414F700FF0000FF00FF1484
:1004100014F404FC141417101F10101F101F1414D0
:10042000141F00101010F0000000001F101010101A
:100430001F10101010F010000000FF10101010100E
:1004400010101010FF10000000FF140000FF00FF4C
:1004500000001F10170000FC04F4141417101714E8
:1004600014F404F40000FF00F7141414141414140A
:10047000F700F7141414171410101F101F1414147D
:10048000F4141010F010F000001F101F0000001FE7
:1004900014000000FC140000F010F01010FF10FF1A
:1004A000141414FF141010101F00000000F010FFAF
:1004B000FFFFFFFFF0F0F0F0F0FFFFFF0000000093
:1004C00000FFFF0F0F0F0F0F3844443844FC4A4A17
:1004D0004A347E02020606027E027E0263554941CC
:1004E000633844443C04407E201E2006027E020203
:1004F00099A5E7A5991C2A492A1C4C7201724C3017
:100500004A4D4D303048784830BC625A463D3E49ED
:100510004949007E0101017E2A2A2A2A2A44445F91
:10052000444440514A444040444A51400000FF0185
:1005300003E080FF000008086B6B08361236243693
:10054000060F090F060000181800000010100030F8
:1005500040FF0101001F01011E00191D1712003C80
:100560003C3C3C0000000000000103070F1F3F7FE0
:100570000080C0E0F0F8FCFE00000000240027002E
:100580002A000000000023002600290000000008C7
:10059000000201000003040700000000000000004A
:1005A000DB40A4A62EAF2000A1C8D300408DAED55D
:1005B00080A80102040810204080010204081020D5
:1005C00001020408102000000000250028002B0074
:1005D00004040404040404040202020202020303E9
:1005E000030303030000600000000000000000009F
:1005F0000000000000E0000000000000000000001B
:1006000000000001E0000000000000000000000009
:10061000000001F0000000000000000000000000E9
:100620000003F000000000000000000000000000D7
:1006300007F00000000000000000000000000007BC
:10064000F8000000000000000000000000000FF8AB
:1006500000000003C0007E000001E0007F0FF800F2
:10066000000003C000FE000001E000FFEFF8000002
:100670000003C000FE000001E000FFFFF8000000E2
:1006800003C000F00000000F007FFE7FC0000003E9
:10069000C000F00000000F003FFE7FF83FF1FBCFED
:1006A000FCFEF3BC3DEFE01FFE7FFF7FFBFFDFFEA4
:1006B000FEFFBC3DEFE01FC6FFFF7FFBFFDFFEFE3E
:1006C000FFBC3DEFE00FE3C7FE787BC3DE1EF0FF0B
:1006D000BC3DEF0007FF87FC787BC3DE1EF0F83CD3
:1006E0003DEF0001FFFFF0007BC3C01EF0F03C3D7A
:1006F000EF0001F37FE03FFBC3CFFEF0F03C3DEFA6
:100700000003E33F807FFBC3DFFEF0F03C3DEF00E2
:1007100007E73C00787BC3DE1EF0F03C3DEF0007AE
:10072000FFBE00787BC3DE1EF0F03C3DEF0007FF0C
:10073000FE00787BC3DE1EF0F03C3DEF000FFFFEB5
:10074000007FFBFFDFFEF0F03FFDEFE00FFFFF005B
:100750007FFBFFDFFEF0F03FFDEFE00FF9FF003E13
:1007600079F9CF9EF0F01F3DE7E01FF1FF00000098
:100770000000000000000000001F80FF007FFFFF5E
:10078000FFFFFFFFFFFFFFE01C007F007FFFFFFF79
:10079000FEB46D888D18E000001F007FFFFFFFFE94
:1007A00095AD7DB577E000000F007FFFFFFFFEA550
:1007B000AD9D8D19E0000006007FFFFFFFFEB5AD87
:1007C000EDB57EE0000000000001800000000000A8
:1007D000000000000380000000000000000000078F
:1007E000C000000000000000000007C00000000082
:1007F00000000000000FC00000000000000000002A
:100800001FE00000000000000000001FE0000000EA
:100810000000000000003FE00000000000000000B9
:10082000003FF00000000000000000007FF000002A
:1008300000000000001FF87FF00000000000000032
:100840003FFE7FF0000000000000003FFF7FF0004F
:100850000000000000001FFFFBE00000000000009F
:10086000000FFFF9FFC00000000000000FFFF9FFBC
:10087000F800000000000007FFF1FFFF000000008B
:10088000000003FC73FFFF80000000000001FE3F3A
:10089000FFFF80000000000000FF1E0FFF000000AF
:1008A000000000007FFE1FFC000000000000003F71
:1008B000FFFFF8000000000000000FDFFFE0000075
:1008C00000000000001F19FFC00000000000000031
:1008D0003F3CFF00000000000000007E7CF80000AC
:1008E0000000000000007FFE7C000000000000000F
:1008F00000FFFFFC0000000000000000FFFFFE0002
:1009000000000000000000FFFFFE000000000000EB
:100910000001FFEFFE0000000000000001FFCFFE1D
:100920000000000000000003FF07FE0000000000C0
:10093000000003FC07FE0000000000000003F003BD
:10094000FE00000000000000018000FE000000002A
:100950000000000000007E00000000000000000019
:10096000003E000000000000000000000C0000003D
:10097000000000078000FC000003C00000000780AA
:1009800001FC000003C0000000078001FC00000320
:10099000C0000000078001E00000001E000000070A
:1009A0008001E00000001E007FE3F79FF9FDE7787B
:1009B0007BDFC0FFF7FFBFFDFDFF787BDFC0FFF7E8
:1009C000FFBFFDFDFF787BDFC0F0F787BC3DE1FF97
:1009D000787BDE00F0F787BC3DE1F0787BDE00003D
:1009E000F787803DE1E0787BDE007FF7879FFDE1C0
:1009F000E0787BDE00FFF787BFFDE1E0787BDE007B
:100A0000F0F787BC3DE1E0787BDE00F0F787BC3D86
:100A1000E1E0787BDE00F0F787BC3DE1E0787BDE4B
:100A200000FFF7FFBFFDE1E07FFBDFC0FFF7FFBF87
:100A3000FDE1E07FFBDFC07CF3F39F3DE1E03E7B27
:100A4000CFC00000000000000000000000FFFFFF1A
:100A5000FFFFFFFFFFFFFFC0FFFFFFFFFD68DB1190
:100A60001A31C0FFFFFFFFFD2B5AFB6AEFC0FFFFEB
:100A7000FFFFFD4B5B3B1A33C0FFFFFFFFFD6B5BCE
:100A8000DB6AFDC05353443133303620616C6C6FE8
:100A9000636174696F6E206661696C656400220031
:100AA000FF2100009D1A912011241FBECFEFD8E036
:100AB000DEBFCDBF23E0A8ECB1E001C01D92A03B9A
:100AC000B207E1F711E0A0E0B1E0E0EEFAE402C025
:100AD00005900D92A83CB107D9F715E0C3E5D5E024
:100AE00004C02197FE010E945623C235D107C9F7E1
:100AF0000E94ED1B0C9463250C940000089508954A
:100B00000895AF92BF92CF92DF92EF92FF920F9330
:100B10001F93CF93DF936C017B018B01040F151F93
:100B2000EB015E01AE18BF08C017D10759F06991FB
:100B3000D601ED91FC910190F081E02DC60109955F
:100B4000892B79F7C501DF91CF911F910F91FF900C
:100B5000EF90DF90CF90BF90AF900895FC01538D40
:100B6000448D252F30E0842F90E0821B930B541787
:100B700010F0CF96089501970895FC01918D828D14
:100B8000981761F0A28DAE0FBF2FB11D5D968C91AD
:100B9000928D9F5F9F73928F90E008958FEF9FEFEC
:100BA0000895FC01918D828D981731F0828DE80FA8
:100BB000F11D858D90E008958FEF9FEF0895FC0162
:100BC000918D228D892F90E0805C9F4F821B91092F
:100BD0008F73992708958DE992E00E94DF0521E047
:100BE000892B09F420E0822F089580E090E0892B82
:100BF00029F00E94EB0581110C9400000895FC017E
:100C0000A48DA80FB92FB11DA35ABF4F2C91848D6D
:100C100090E001968F739927848FA689B7892C93CA
:100C2000A089B1898C91837080648C93938D848D1D
:100C3000981306C00288F389E02D80818F7D808320
:100C40000895EF92FF920F931F93CF93DF93EC01E0
:100C500081E0888F9B8D8C8D98131AC0E889F98963
:100C6000808185FF15C09FB7F894EE89FF89608366
:100C7000E889F98980818370806480839FBF81E0E7
:100C800090E0DF91CF911F910F91FF90EF90089529
:100C9000F62E0B8D10E00F5F1F4F0F731127E02E04
:100CA0008C8D8E110CC00FB607FCFACFE889F9893C
:100CB000808185FFF5CFCE010E94FF05F1CFEB8D3E
:100CC000EC0FFD2FF11DE35AFF4FF0829FB7F89410
:100CD0000B8FEA89FB8980818062CFCFCF93DF932E
:100CE000EC01888D8823B9F0AA89BB89E889F98944
:100CF0008C9185FD03C0808186FD0DC00FB607FC79
:100D0000F7CF8C9185FFF2CF808185FFEDCFCE01AB
:100D10000E94FF05E9CFDF91CF910895833081F0E4
:100D200028F4813099F08230A9F008958730A9F035
:100D30008830C9F08430B1F4809180008F7D03C089
:100D4000809180008F7780938000089584B58F779D
:100D500084BD089584B58F7DFBCF8091B0008F77DF
:100D60008093B00008958091B0008F7DF9CFCF932C
:100D7000DF93282F30E0F901E457FA4F8491F9010D
:100D8000EE54FA4FD491F901E053FA4FC491CC23B9
:100D9000A1F081110E948E06EC2FF0E0EE0FFF1FF4
:100DA000EE57FA4FA591B491EC91ED2381E090E0DC
:100DB00009F480E0DF91CF91089580E090E0FACFD0
:100DC0001F93CF93DF93282F30E0F901E457FA4FB8
:100DD0008491F901EE54FA4FD491F901E053FA4F9E
:100DE000C491CC23A9F0162F81110E948E06EC2FFE
:100DF000F0E0EE0FFF1FEA53FA4FA591B4918FB7C1
:100E0000F894EC91111108C0D095DE23DC938FBFCC
:100E1000DF91CF911F910895DE2BF8CFCF93DF9311
:100E200090E0FC01EE54FA4F249180539A4FFC015C
:100E300084918823C9F090E0880F991FFC01E8583D
:100E4000FA4FA591B491FC01EA53FA4FC591D491A0
:100E500061110DC09FB7F8948C91209582238C93DB
:100E60008881282328839FBFDF91CF910895623026
:100E700051F49FB7F8943C91822F809583238C93F3
:100E8000E8812E2BEFCF8FB7F894EC912E2B2C937B
:100E90008FBFEACF8E50806480937C0080917A006F
:100EA000806480937A0080917A0086FDFCCF8091E7
:100EB00078009091790008953FB7F89480917E0270
:100EC00090917F02A0918002B091810226B5A89BEB
:100ED00005C02F3F19F00196A11DB11D3FBFBA2FCC
:100EE000A92F982F8827BC01CD01620F711D811D8C
:100EF000911D42E0660F771F881F991F4A95D1F711
:100F000008958F929F92AF92BF92CF92DF92EF920D
:100F1000FF924B015C010E945C076B017C010E9407
:100F20005C076C197D098E099F09683E7340810535
:100F30009105A8F321E0821A9108A108B10888EE72
:100F4000C80E83E0D81EE11CF11C81149104A10499
:100F5000B10429F7FF90EF90DF90CF90BF90AF9052
:100F60009F908F9008952FB7F89460917A027091B6
:100F70007B0280917C0290917D022FBF0895EF92B9
:100F8000FF920F931F93CF93DF93EC01EC80FD80D2
:100F90006E157F050CF070C057FF04C0240F351F7D
:100FA00050E040E08E819F81FA01E20FF31F8E171F
:100FB0009F071CF49C01241B350B121613060CF022
:100FC0005BC0922F842F8695869586958E9DD00145
:100FD0008F9DB00D11246A0F7B1FAF8DB8A1A60F96
:100FE000B71F477049F188E0841B482F682F70E0D5
:100FF000FB01E059FA4FE491281708F063C0621B27
:1010000071092FEF30E002C0359527956A95E2F718
:10101000E2230130110539F0B0F10230110561F51C
:101020008C91E82702C08C91E82BEC93941720F167
:101030002C813D81A20FB31FE92FE41BE83078F02B
:101040000230110521F58E2F9C9190959C932C8157
:101050003D81A20FB31F88508830B0F7E770EE23B0
:1010600059F0F0E0E859FA4FE49101301105F9F038
:1010700010F10230110519F1DF91CF911F910F91FD
:10108000FF90EF900895E0958C91E823CECF81E01A
:101090000115110509F480E081959E2F8C932C8118
:1010A0003D81A20FB31F98509830C0F7D7CF8C91D5
:1010B000E82BEC93E1CFE0958C91E823FACF8C916B
:1010C000E827F7CF0130110509F4ADCFE0F2023087
:1010D000110509F4A5CFAE0DBF1DAECF0F931F9321
:1010E000CF93DF9377FF04C0260F371F70E060E0D7
:1010F000DC011496CD91DC91FB01E20FF31FCE17BA
:10110000DF071CF49E01261B370B121613064CF545
:10111000FA0157FD3796A3E0F595E795AA95E1F713
:10112000EC9FD001ED9FB00DFC9FB00D11246A0F14
:101130007B1FDC015F96ED91FC91E60FF71F477076
:10114000552781E090E001C0880F4A95EAF7482FC3
:101150000130110559F0A8F02E0F3F1F0230110584
:10116000E1F0DF91CF911F910F9108952E0F3F1F56
:10117000E217F307B1F38191DF011197842B8C9370
:10118000F7CF80952E0F3F1FE217F30751F3919190
:10119000DF01119798239C93F7CFE217F30709F328
:1011A0008191DF01119784278C93F7CF0F931F93C1
:1011B000FA01DC0156964C9156974230E9F04330E3
:1011C000A1F1413061F514964D915C91DA01AE1BAD
:1011D000BF0BFD01E21BF30B77FD0BC0DC01169684
:1011E0004D915C916417750724F4AB01BF010E9417
:1011F0006E081F910F91089514964D915C91DA013C
:10120000A61BB70BBD0161507109DC0116964D910B
:101210005C91DA01AE1BBF0BFD01E21BF30B77FD06
:10122000E8CFAF010E94BF07E4CF16964D915C91C5
:10123000DA01A61BB70BBD0161507109CDCF0F9329
:101240001F93FA01DC0156964C9156974230A9F053
:10125000433091F1413019F514964D915C91DA01CA
:10126000AE1BBF0BFD013197F7FD04C0AB01BF0101
:101270000E94BF071F910F91089514964D915C91A4
:10128000DA01A61BB70BBD01DC0116964D915C91EE
:10129000DA01AE1BBF0BFD013197621B730BF7FD2B
:1012A000E9CFDC0116964D915C91E417F50714F730
:1012B000AF010E946E08DECF16964D915C91DA0167
:1012C000A61BB70BBD01621B730BCECFFC0177FDD4
:1012D00064C080859185681779070CF05EC057FD62
:1012E0005CC082859385481759070CF056C08689E3
:1012F0008230B1F0833029F1813041F484819581CD
:10130000841B950BAB01BC01615071092130310583
:1013100009F108F443C02230310509F463C008958F
:1013200084819581DC01A61BB70BBD016150710959
:1013300086819781DC01A41BB50BAD014150510999
:10134000E5CF86819781861B970BBA01AC0141508E
:101350005109DCCFCA0157FD0796A3E09595879503
:10136000AA95E1F7A481B5818A9F90018B9F300DEA
:101370009A9F300D1124620F731F078CF0A1E02D8E
:10138000E60FF71F4770552721E030E001C0220F1C
:101390004A95EAF78081822B80830895CA0157FD20
:1013A000079633E0959587953A95E1F7A481B58145
:1013B0008A9F90018B9F300D9A9F300D1124620FF0
:1013C000731F078CF0A1E02DE60FF71F477055271C
:1013D00081E090E001C0880F4A95EAF780959081FE
:1013E0008923DACFCA0157FD079623E095958795A3
:1013F0002A95E1F7A481B5818A9F90018B9F300DDA
:101400009A9F300D1124620F731F078CF0A1E02DFD
:10141000E60FF71F4770552721E030E001C0220F8B
:101420004A95EAF780818227B7CF08958CBD9DBD8C
:1014300008950895FC016370668B848195812681EF
:101440003781613039F0633029F0918780873387A5
:1014500022870895318720879387828708952F9266
:101460003F924F925F926F927F928F929F92AF9234
:10147000BF92CF92DF92EF92FF920F931F93CF9381
:10148000DF93CDB7DEB76A970FB6F894DEBF0FBE15
:10149000CDBF9A8F898F7A8369834A01D22E1887AC
:1014A0000F833701BC2CDC0159962D913C915A9742
:1014B0002115310509F015C118968D919C91199748
:1014C000681779070CF0D7C11A968D919C9148172F
:1014D00059070CF0D0C14C2C512CB6E0CB9E600DBE
:1014E000711D11247C876B87161617060CF0C3C17B
:1014F000EA2DF0E0FA87E98793E0EE0FFF1F9A9557
:10150000E1F7F88BEF87CF01840F951F18161906A6
:101510000CF0B1C1A98DBA8D58968C91811104C07F
:10152000BFEABD1508F4D394A98DBA8DED91FC9155
:1015300011970284F385E02DCD010995B5E0DB9E7E
:10154000C0011124E981FA81FC83EB83312C212C29
:101550009C0128593F4F388F2F8B4A2D50E05E8BCE
:101560004D8BEF89F88DE20DF31D44919E828D82A3
:10157000D12CC12C69817A81620D731D7A8B698BA4
:10158000842F90E09C8B8B8BE98DFA8DA081B181AB
:1015900040FF82C0F1E0BF126FC0AF126DC01C9659
:1015A000ED91FC912F813885A4014C0D5D1D698959
:1015B0007A89898D9A8D0995EB89FC89F595E7954E
:1015C0004E2F5FEFC51AD50A6D817E818D899E8968
:1015D000680F791F7E836D8398E0C916D10481F668
:1015E000AFEF2A1A3A0AEB81FC81E40DF51DFC836A
:1015F000EB83F5E02F16310409F0B3CF2F81388546
:1016000026153705B9F0A98DBA8DED91FC91B1E0A1
:10161000BB1257C0AB1255C069817A816B5F7F4F97
:101620000088F189E02D830128E030E0A401898D54
:101630009A8D0995A98DBA8DED91FC911197068827
:10164000F789E02DCD016A960FB6F894DEBF0FBE84
:10165000CDBFDF91CF911F910F91FF90EF90DF9061
:10166000CF90BF90AF909F908F907F906F905F9042
:101670004F903F902F9009941E96ED91FC91EF8032
:10168000F88409851A8592014D815E816B817C8188
:10169000898D9A8D099590CF2F813885261537052C
:1016A00009F48ACF31E0B31207C0A31205C01C961B
:1016B000ED91FC91930178CF1E96ED91FC91730111
:1016C000E0CF6B857C85641975090684F785E02D6C
:1016D00073010F8518899201A401898D9A8D09954E
:1016E000A9CFF90134969491329745915491D91A22
:1016F000B7E0DB9E400D511D1124F9012591349175
:101700003C8B2B8BFA0125903490FA013296749021
:1017100031963491398B329664903196449041E001
:101720004C1518F04A1508F07FC0662D062C000CE9
:10173000770B7C836B83842D042C000C990B9E8388
:101740008D83A98DBA8DED91FC9111970284F3855B
:10175000E02DCD010995512CD12CC12CEA2DF0E0C2
:10176000FA87E9872B2D30E03C872B87A401440DB5
:10177000511D47FC5A95588F4F8B69817A81660DB0
:10178000711D67FC7A957E876D877989C71608F089
:1017900051CF2C2D30E04D815E81420F531FA98522
:1017A000BA854A9FC0014B9F900D5A9F900D1124FE
:1017B000FC01E80DF91DF88BEF87852D612C4F8911
:1017C000588D420F531F5E8B4D8B671408F050C02D
:1017D00044244394480E877041F4C1010196EB897B
:1017E000FC89E20DF31DD4901C01D7FE19C0A98D10
:1017F000BA8DED91FC91662D70E0B1E0BB1219C07D
:10180000AB1217C02D853E85620F731F0484F585CA
:10181000E02D2F8138854D895E89898D9A8D0995B6
:10182000DD0C6394842DD1CF1E821D821C821B820D
:1018300088CF4B815C81640F751FAB85BC856A9F27
:10184000C0016B9F900D7A9F900D112469817A8160
:10185000680F791F0684F785E02DEF80F8840985ED
:101860001A859D014F855889898D9A8D0995D8CF04
:10187000570CC3948ACF6A960FB6F894DEBF0FBE9A
:10188000CDBFDF91CF911F910F91FF90EF90DF902F
:10189000CF90BF90AF909F908F907F906F905F9010
:1018A0004F903F902F9008958F929F92AF92CF923A
:1018B000EF92FF920F931F93CF93DF93EC01262FAC
:1018C000898D9A8D009709F051C06A30D1F41D8638
:1018D0001C868D8948E0849F900111248E859F8508
:1018E000820F931F9F878E8781E090E0DF91CF91D9
:1018F0001F910F91FF90EF90CF90AF909F908F909E
:1019000008956D3089F3CC88AD888F898823C1F024
:101910008C859D8536E0C39E800D911D11244885E0
:1019200059854817590764F44E855F851D861C86C6
:1019300038E0A39EC0011124840F951F9F878E87D6
:10194000EA88FB88088919894E855F856C857D85C5
:10195000CE010E942F0A2C898C859D8546E0249F0C
:10196000800D911D11249D878C87BECF6A3069F44C
:101970001D861C86FC013896E4912D898E859F85F5
:10198000E29F800D911D1124ADCF6D3009F4ACCFD5
:10199000FC0134963491631708F4A6CF3296E49193
:1019A000E61708F4A1CFFC01329685909490462F5B
:1019B000431B342F47E0349F800C911C1124F40109
:1019C000329634913196E4913323A9F1EE2399F1C3
:1019D000CC88F4013596E491AD884F89442301F118
:1019E0000E2E000CFF0BE30FF11DCE9EA001CF9E2B
:1019F000500D11246C857D85460F571F68857985AC
:101A0000641775076CF44E855F851D861C86FC0186
:101A10003896E491AE9E400D511D11245F874E878C
:101A2000EA88FB88088919894E855F856C857D85E4
:101A3000CE010E942F0AF4013496E4912C898C8502
:101A40009D85E29F800D911D11248DCF6F927F9215
:101A50008F929F92AF92BF92CF92DF92EF92FF92BE
:101A60000F931F93CF93DF93EC016B015A01390160
:101A70004801E881F9810284F385E02D0995E88128
:101A8000F9810288F389E02D87019301A501B60150
:101A9000CE010995A501480D591D41505109E88114
:101AA000F9810288F389E02D9301B601CE010995F1
:101AB000E881F9810088F189E02D9401A501B60142
:101AC000CE010995C60CD71CB60161507109E88199
:101AD000F9810088F189E02D9401A501CE010995D5
:101AE000E881F9810688F789E02DCE01DF91CF9159
:101AF0001F910F91FF90EF90DF90CF90BF90AF902C
:101B00009F908F907F906F9009946F927F928F92A9
:101B10009F92AF92BF92CF92DF92EF92FF920F937C
:101B20001F93CF93DF935C01EB016A0149013801F8
:101B30008701DC01ED91FC916217730719F56416BA
:101B400075062CF0962D872D3A01C92ED82E9601B8
:101B5000261937092F5F3F4F048CF58DE02DA30127
:101B6000BE01C5010995DF91CF911F910F91FF90A3
:101B7000EF90DF90CF90BF90AF909F908F907F902D
:101B80006F9008954615570591F42617370724F0EE
:101B9000892D4B01C22FD82F9E01281939092F5F9B
:101BA0003F4F068CF78DE02DA601B401DACF0284F9
:101BB000F385E02D0995D501ED91FC910488F58917
:101BC000E02D83019401A601BE01C5010995D5014F
:101BD000ED91FC910688F789E02DC501DF91CF9149
:101BE0001F910F91FF90EF90DF90CF90BF90AF903B
:101BF0009F908F907F906F900994EF92FF920F9338
:101C00001F93DC011A960D911C911B9718962D912C
:101C10003C911997ED91FC9100A0F1A1E02D7B0181
:101C200050E040E070E060E009951F910F91FF9057
:101C3000EF9008954F925F926F927F928F929F9252
:101C4000AF92BF92CF92DF92EF92FF920F931F93CA
:101C5000CF93DF936C012B015A0139014801DC015C
:101C6000ED91FC910284F385E02D0995E201640C6D
:101C7000751CD601ED91FC91C615D7055CF4008862
:101C8000F189E02D87019401A501BE01C6010995E6
:101C90002196EFCF0688F789E02DC601DF91CF911D
:101CA0001F910F91FF90EF90DF90CF90BF90AF907A
:101CB0009F908F907F906F905F904F9009948F923C
:101CC0009F92AF92BF92CF92DF92EF92FF920F93CB
:101CD0001F93CF93DF93EC015B014A016901E88117
:101CE000F9810284F385E02D099595012C0D3D1DA8
:101CF00021503109E881F9810488F589E02D7801C6
:101D00008401A401B501CE010995E881F981068815
:101D1000F789E02DCE01DF91CF911F910F91FF90B8
:101D2000EF90DF90CF90BF90AF909F908F900994ED
:101D30008F929F92AF92BF92CF92DF92EF92FF92DB
:101D40000F931F93CF93DF93EC015B014A0169016D
:101D50007801E881F9810284F385E02D0995C80CAA
:101D6000D91C860101501109E881F9810488F5899F
:101D7000E02D9501A401B501CE010995E881F98115
:101D80000688F789E02DCE01DF91CF911F910F9149
:101D9000FF90EF90DF90CF90BF90AF909F908F908B
:101DA0000994EF92FF920F931F93DC01ED91FC9148
:101DB00000A0F1A1E02D09951F910F91FF90EF90E8
:101DC00008950F931F93DC01ED91FC91068CF78D24
:101DD000E02D09951F910F9108950F931F93DC013A
:101DE000ED91FC91048CF58DE02D09951F910F91DB
:101DF0000895DC01ED91FC910084F185E02D0994BA
:101E00003F924F925F926F927F928F929F92AF928A
:101E1000BF92CF92DF92EF92FF920F931F93CF93D7
:101E2000DF935C017B014A016901390187E0680E9B
:101E3000711C93E0759467949A95E1F72B01400E1D
:101E4000511E10E000E0312CD0E0C0E0CE018770E0
:101E50009927330C892B59F4FE0183E0F595E7951A
:101E60008A95E1F7E00FF11FE80DF91D349037FE78
:101E70000AC021E030E0A701B5016C0F7D1F86E6A6
:101E800093E00E94F90E2196CC16DD06F9F68FEF4D
:101E9000E81AF80A060D171DE414F504A9F6DF91F7
:101EA000CF911F910F91FF90EF90DF90CF90BF9057
:101EB000AF909F908F907F906F905F904F903F90EA
:101EC00008952F923F924F925F926F927F928F92DE
:101ED0009F92AF92BF92CF92DF92EF92FF920F93B9
:101EE0001F93CF93DF9300D000D000D0CDB7DEB7E3
:101EF0003C016A013E832D83FC82EB825801A41AC7
:101F0000B50AB7FE03C0B194A194B1088D809E803C
:101F1000861A970A97FE03C09194819491088A14B7
:101F20009B045CF0902F812F0D811E819D838E83F9
:101F30009C2D8D2D6B01692F782F0C151D055CF0E4
:101F40009D818E817E836D83692F782F902F812FC5
:101F50008601C92ED82E1601201A310A2B012D8197
:101F60003E81421A530A57FE03C0519441945108CE
:101F7000710137FE03C03FEFE31AF30AF594E794CB
:101F80008D819E81861797075CF5A1E0B0E0BA834A
:101F9000A983C016D1064CF1D301ED91FC910484C4
:101FA000F585E02D2B813C81A8016D817E818A140D
:101FB0009B041CF04D815E81B801C3010995E418B2
:101FC000F508F7FE0AC02D813E8189819A81280F8C
:101FD000391F3E832D83E20CF31C0F5F1F4FD9CFB7
:101FE0002FEF3FEF3A832983D4CF26960FB6F8948C
:101FF000DEBF0FBECDBFDF91CF911F910F91FF903C
:10200000EF90DF90CF90BF90AF909F908F907F9098
:102010006F905F904F903F902F900895089520917A
:102020002F02260F3327331F21323105ECF4209184
:102030005302FC0190E080E0243069F082E00895D2
:10204000A0912F022191AC01415F5D4FA40FB52FEC
:10205000B11D2C930196861798F380912F02680F7B
:1020600060932F0280E0089581E00895109253025A
:1020700081E0809355021092540261E082E10E9457
:10208000E00661E083E10E94E006E9EBF0E0808198
:102090008E7F808380818D7F808388E48093B800E9
:1020A00085E48093BC000895CF93DF9391E09093F3
:1020B0000E028823B9F0C091B800D091BA00809187
:1020C000BC008A7B8093BC0060E082E10E94E00655
:1020D00060E083E10E94E0060E943610D093BA00CF
:1020E000C093B800DF91CF910895E091870280916D
:1020F0008602E81730F4F0E0E751FE4F808190E06F
:1021000008958FEF9FEF0895909187028091860246
:102110002FEF3FEF981748F4E92FF0E0E751FE4F1B
:10212000208130E09F5F90938702C90108958091DC
:10213000860290918702891B990B0895CF92DF92B6
:10214000EF92FF920F931F93CF93DF937C01CB010C
:102150008A0120919C02222389F0EB016B01C40EBD
:10216000D51ECC15DD0569F06991D701ED91FC9183
:102170000190F081E02DC7010995F3CF642F0E94F3
:102180000F10C801DF91CF911F910F91FF90EF9039
:10219000DF90CF900895CF93DF931F92CDB7DEB736
:1021A000698320919C022223F9F020919902203228
:1021B00058F021E030E0FC013383228390E080E09E
:1021C0000F90DF91CF91089580919A02E82FF0E06F
:1021D000E753FE4F998190838F5F80939A0280939B
:1021E000990281E090E0ECCF61E0CE0101960E947F
:1021F0000F10F7CFCF92DF92EF92FF920F931F93C2
:10220000CF93DF93D091990281E0D13208F09CC046
:10221000C0919B020E945C076B017C01809153027C
:1022200081116CC082E08093530281E0809355025B
:102230008FEF8093520210927702D0937602A9EC2E
:10224000B1E0E6E5F2E080E0D8138DC010927802AC
:1022500080917802CC0FC82BC093780280915402F1
:10226000813009F084C0109254020E945C076B0117
:102270007C01809178028093BB0080910A0290914A
:102280000B02A0910C02B0910D02892B8A2B8B2B93
:10229000A1F00E945C0700910A0210910B022091AC
:1022A0000C0230910D026C197D098E099F090617E9
:1022B00017072807390708F442C08091BC0083FD46
:1022C000D8CF85EC8093BC000E945C076B017C0139
:1022D00080915302823009F44CC0809152028F3FAA
:1022E00009F469C080915202803209F466C080917D
:1022F0005202803309F463C084E026C080910A0250
:1023000090910B02A0910C02B0910D02892B8A2BA7
:102310008B2B09F483CF0E945C0700910A02109175
:102320000B0220910C0230910D026C197D098E096F
:102330009F09061717072807390708F06FCF809104
:1023400009020E94541085E010929A02109299029C
:1023500010929C02DF91CF911F910F91FF90EF900F
:10236000DF90CF9008959D9191938F5F6DCF85EE13
:10237000A9CF80910A0290910B02A0910C02B0911A
:102380000D02892B8A2B8B2B09F4A2CF0E945C07AC
:1023900000910A0210910B0220910C0230910D0263
:1023A0006C197D098E099F09061717072807390739
:1023B00008F08ECFC4CF80E0C7CF82E0C5CF83E0E6
:1023C000C3CF90E080E00895CF93CFB7F894809189
:1023D000C801811127C0EAEDF5E08491ECEBF5E04E
:1023E0009491E82FF0E0EE0FFF1FE858FA4FA59107
:1023F000B491EC91E92321F461E08AE00E94E006C7
:1024000061E08AE00E940E078CB580618CBD8CB5BE
:1024100080648CBD61E08DE00E940E0761E08BE07E
:102420000E940E078091C8018F5F8093C801CFBFC3
:10243000CF9108958EBD00000DB407FEFDCF8EB57F
:102440000895EF92FF920F931F93CF93DF937C0138
:10245000C62F8091830390918403009709F459C09B
:102460002091870331E030939C0220939B021092CD
:102470009A0210929902DC01ED91FC910190F08199
:10248000E02D60E009958701EE24E394F12CD1E082
:10249000C1508091830390918403CF3F91F1B0E2CA
:1024A000EB16F104D8F00E94FA108091830390910A
:1024B000840320918703D0939C0220939B02109267
:1024C0009A0210929902DC01ED91FC910190F08149
:1024D000E02D60E00995EE24E394F12C80918303D4
:1024E00090918403F8016491DC01ED91FC910190DD
:1024F000F081E02D0995BFEFEB1AFB0A0F5F1F4F2C
:10250000C7CFDF91CF911F910F91FF90EF900C9467
:10251000FA10E0919303F0919403908180919903D4
:102520008095892380838701C15008F438C0F80161
:1025300084912091810330918203232B29F00E9402
:102540001A120F5F1F4FF0CF28E030E040E8E09113
:102550008F03F091900390919703582F5423D9F053
:102560005081952B9083E0919103F091920390819B
:1025700050919803952B9083E0919103F0919203F1
:102580005081909198039095952390834695215082
:102590003109E9F6D6CF508190959523E3CFDF91AD
:1025A000CF911F910F91FF90EF9008950F931F937C
:1025B000CF93DF93182F092F8CB5837F88608CBD54
:1025C000CAE3D3E060E08C810E94E006802F0E9485
:1025D0001A12812F0E941A1261E08C81DF91CF9133
:1025E0001F910F910C94E006809156039091570330
:1025F000892BE9F480913A0390913B03977F2091D6
:10260000580330915903232BC1F49B7F20913F0342
:102610002223A9F09E7F20914003222391F0806421
:1026200020914103222379F080680C94D612809186
:102630003C0390913D039860E2CF9460E7CF9160B6
:10264000EACF8F7BEDCF8F77F0CF1F93CF93DF93C0
:10265000EC018D8D9E8D009721F1162F29A131E07F
:1026600030939C0220939B0210929A02109299023E
:10267000DC01ED91FC910190F081E02D60E0099585
:102680008D8D9E8DDC01ED91FC910190F081E02D0E
:10269000612F09958D8D9E8DDF91CF911F910C94A7
:1026A000FA10ADA5BEA59C918BA9809589238C932A
:1026B0008B8D9C8D892B31F0862FDF91CF911F91CF
:1026C0000C941A1228E030E080E8A9A5BAA599A9CF
:1026D000462F4823C1F04C91942B9C93ABA5BCA5ED
:1026E0009C914AA9942B9C93ABA5BCA54C919AA90B
:1026F000909594239C9386952150310931F7DF9171
:10270000CF911F9108954C9190959423E6CFDF923D
:10271000EF92FF920F931F93CF93DF9380918303E8
:1027200090918403892B09F498C020919B033091E8
:102730009C0340919D0350919E0360E074E284EFFE
:1027400090E00E942C2320513109410951095695EE
:102750004795379527952093B80065E08EE99AE074
:102760000E94211260916A03615086E693E00E9404
:10277000251320916C0330916D03C901079697FDD5
:10278000079633E0959587953A95E1F720916A038E
:1027900030916B03829F8001839F100D929F100DDB
:1027A0001124C0918503D091860380918303909179
:1027B00084030C0F1D1F009709F48FC0209187031D
:1027C00031E030939C0220939B0210929A02109267
:1027D0009902DC01ED91FC910190F081E02D60E423
:1027E0000995EE24E394F12CDD24D39480918303A6
:1027F000909184030C171D0709F446C0B0E2EB1654
:10280000F104D8F00E94FA10809183039091840320
:1028100020918703D0929C0220939B0210929A02EF
:1028200010929902DC01ED91FC910190F081E02D74
:1028300060E40995EE24E394F12C80918303909158
:1028400084036991DC01ED91FC910190F081E02D10
:102850000995BFEFEB1AFB0AC9CF809181039091D4
:102860008203892B31F08091A4039091A5030E94EB
:10287000160AE0919503F0919603908180919A0356
:1028800080958923808369CF0E94FA108091830309
:1028900090918403892B09F461C020919F033091AA
:1028A000A0034091A1035091A20360E074E284EF81
:1028B00090E00E942C23205131094109510956957D
:1028C0004795379527952093B800DF91CF911F91B9
:1028D0000F91FF90EF90DF900895E0919303F091B6
:1028E0009403808190919903892B80830C171D0795
:1028F00069F289912091810330918203232B19F091
:102900000E941A12F3CF28E030E040E8E0918F03F4
:10291000F091900390919703582F5423D9F0508150
:10292000952B9083E0919103F091920390815091C7
:102930009803952B9083E0919103F091920350813D
:102940009091980390959523908346952150310955
:10295000E9F6CCCF508190959523E3CFE091950394
:10296000F0919603808190919A03892B8083ADCF5B
:102970001F93CF93DF93EC01162F8D8D9E8D892BA6
:10298000B1F12DA93EA94FA958AD60E074E284EFE2
:1029900090E00E942C23205131094109510956959C
:1029A0004795379527952093B80066EA111167EA95
:1029B000CE010E9425138D8D9E8D892B41F129AD6D
:1029C0003AAD4BAD5CAD60E074E284EF90E00E9404
:1029D0002C232051310941095109569547953795C6
:1029E00027952093B800DF91CF911F9108958B8D8B
:1029F0009C8D892B21F08EAD9FAD0E94160AEFA50C
:102A0000F8A990818CA9809589238083CECFEFA5EA
:102A1000F8A980819CA9892B8083E5CFFB010190D7
:102A20000020E9F73197AF01461B570BDC01ED9110
:102A3000FC910280F381E02D09948F929F92AF92D6
:102A4000BF92EF92FF920F931F93CF93DF93CDB777
:102A5000DEB7A1970FB6F894DEBF0FBECDBF7C01E5
:102A6000FA01CB0119A2223008F42AE08E010F5D91
:102A70001F4F822E912CB12CA12CBF01A5019401D6
:102A80000E942C23F901CA016A300CF5605DD8015F
:102A90006E938D01232B242B252B79F790E080E07A
:102AA000109721F0BD01C7010E940E15A1960FB627
:102AB000F894DEBF0FBECDBFDF91CF911F910F9174
:102AC000FF90EF90BF90AF909F908F900895695CBA
:102AD000DECFCF93DF93AB01BC012AE08DE992E01A
:102AE0000E941D15EC0169E571E08DE992E00E94FC
:102AF0000E158C0F9D1FDF91CF910895CF93DF931B
:102B0000BC0186E693E00E940E15EC0169E571E0D8
:102B100086E693E00E940E158C0F9D1FDF91CF91EA
:102B20000895CF92DF92EF92FF920F931F93CF936E
:102B3000DF93EC016B01770FEE08FF08F7FE25C06D
:102B4000E881F9810190F081E02D6DE209958C0119
:102B500044275527BA014C195D096E097F092AE0FF
:102B6000CE010E941D15080F191F69E571E0CE0105
:102B70000E940E15800F911FDF91CF911F910F9131
:102B8000FF90EF90DF90CF9008952AE0B701A60163
:102B90000E941D158C01E9CFCF93DF93EC0180914A
:102BA000A6039091A703009759F02091A8033091B4
:102BB000A9032C173D0720F081E0DF91CF91089504
:102BC000BE016F5F7F4F0E948124009789F0909330
:102BD000A7038093A603D093A903C093A8032091D1
:102BE000AA033091AB03232B39F7FC011082E4CF09
:102BF00080E0E3CF0F931F93CF93DF938C01EC0121
:102C000009900020E9F72197C81BD90BCE010E943B
:102C1000CC152091A6033091A703811117C021156F
:102C2000310519F0C9010E94F8231092A7031092F0
:102C3000A6031092AB031092AA031092A90310925C
:102C4000A803DF91CF911F910F910895D093AB030B
:102C5000C093AA03B801C901DF91CF911F910F91D1
:102C60000C945C25CF92DF92EF92FF920F931F930B
:102C7000CF93DF938C016A017B0120E23CEB4EE3B2
:102C80005BE4CB01B6010E94272318160CF47EC02A
:102C900020E030E0A901C701B6010E94A82087FF0B
:102CA00003C0C12CD12C7601C0924603D0924703B9
:102CB000E0924803F092490320E030E040E85DE410
:102CC000C701B6010E940E216B017C016091420395
:102CD0007091430380914403909145030E94AD207D
:102CE0009B01AC01C701B6010E941D220E948F22E8
:102CF000EB01DF73D0642EE0959587957795679506
:102D00002A95D1F77F737B016894F6F80E94F4123C
:102D1000CE010E94D612C7010E94D61220E030E0F8
:102D200044EB53E460E070E0CB010E94D0226B01E1
:102D30007C0121E63BE046E351E40E940E210E9423
:102D400096227F70C0925203D0925303E0925403B4
:102D5000F0925503CB01906E0E94D61210933B0364
:102D600000933A030E94F4121092570310925603F4
:102D70001092590310925803DF91CF911F910F9138
:102D8000FF90EF90DF90CF900C94F41230E2C32EBE
:102D90003CEBD32E3EE3E32E3BE4F32E85CF209194
:102DA0006C0330916D03C901079697FD079623E0E8
:102DB000959587952A95E1F720916A0330916B03E9
:102DC000829FA001839F500D929F500D112470E0AF
:102DD00060E080918503909186030C944C250E94BD
:102DE0003E2585ED8093BC0080910A0290910B02F4
:102DF000A0910C02B0910D020796A11DB11D23E018
:102E0000B695A795979587952A95D1F72091BC00FF
:102E100024FD03C010925302089540910A0250917C
:102E20000B0260910C0270910D02452B462B472B33
:102E300069F30097A105B10541F025E32A95F1F763
:102E400000000197A109B109E1CF809109020C941A
:102E50005410CF92DF92EF92FF92CF93DF930E94B4
:102E6000CF1681E080937A0380937B038AE090E021
:102E700090937303809372031092750310927403FE
:102E80008CE591E00E947E1582E080937A03809326
:102E90007B03109273031092720384E190E090938D
:102EA0007503809374038091000190918E028823B2
:102EB00009F461C1911114C080918D02811110C07B
:102EC0008091010190910201092E000CAA0BBB0B0D
:102ED0008093890290938A02A0938B02B0938C0214
:102EE0008091AA039091AB03892B21F16FE671E0E9
:102EF0008091A6039091A7030E945325892BD1F4BA
:102F00008FE691E00E947E15C0908902D0908A02DF
:102F1000E0908B02F0908C02C701B6010E94AD20B8
:102F2000AB01BC0180E090E20E943216C701B601FD
:102F30000E9469158091AA039091AB03892B21F11E
:102F400063E771E08091A6039091A7030E94532547
:102F5000892BD1F483E791E00E947E15C09089020D
:102F6000D0908A02E0908B02F0908C02C701B601EB
:102F70000E94AD20AB01BC0188E290E20E943216B3
:102F8000C701B6010E9469158091AA039091AB0315
:102F9000892B21F167E771E08091A6039091A70347
:102FA0000E945325892BD1F487E791E00E947E157A
:102FB000C0908902D0908A02E0908B02F0908C023F
:102FC000C701B6010E94AD20AB01BC0182E090E2D6
:102FD0000E943216C701B6010E9469158DE290E089
:102FE0009093730380937203C4E1D0E0D093750390
:102FF000C0937403609101017091020186E693E031
:103000000E949115809100018823C1F080918E0269
:10301000811114C080918D02811110C08AE590E069
:103020009093730380937203D0937503C0937403DA
:103030008BE791E00E947E150E948713809100012A
:1030400081111AC080918E028823B1F080918D0287
:10305000811112C08AE590E090937303809372030C
:1030600084E190E090937503809374038EE791E080
:103070000E947E150E9487138091000181111AC061
:1030800080918E02811116C080918D02882391F06B
:103090008AE590E0909373038093720384E190E05B
:1030A000909375038093740382E891E00E947E15EB
:1030B0000E94871380918802882309F448C081E028
:1030C00080937A0380937B0381E490E09093730371
:1030D000809372038DE290E0909375038093740364
:1030E00066E871E086E693E00E940E150E94871361
:1030F00082E080937A0380937B03DF91CF91FF90EE
:10310000EF90DF90CF9008958111EACE40910101B8
:103110005091020128EE33E0429FC001439F900D81
:10312000529F900D1124D0CE80E09BE1A7EBB0E040
:103130008093890290938A02A0938B02B0938C02B1
:103140008CE090E09093020180930101C9CE81E070
:1031500080937A0380937B0381E490E090937303E0
:10316000809372038DE290E09093750380937403D3
:1031700060E971E0B7CF80918D029111C5CF8823AE
:1031800009F4AECEA0910101B091020120E432E435
:103190004FE050E00E944E2361302BE1720727EB95
:1031A0008207910508F66093890270938A028093E2
:1031B0008B0290938C0294CE1F920F920FB60F92B7
:1031C00011242F933F934F935F936F937F938F932C
:1031D0009F93AF93BF93EF93FF938DE992E00E948B
:1031E000FF05FF91EF91BF91AF919F918F917F91DB
:1031F0006F915F914F913F912F910F900FBE0F9064
:103200001F9018951F920F920FB60F9211242F93B3
:103210008F939F93EF93FF93E091AD02F091AE02F5
:103220008081E091B302F091B40282FD1BC09081D5
:103230008091B6028F5F8F732091B702821741F0A1
:10324000E091B602F0E0E356FD4F958F8093B60211
:10325000FF91EF919F918F912F910F900FBE0F9043
:103260001F9018958081F4CF1F920F920FB60F9286
:1032700011242F933F938F939F93AF93BF9380918C
:103280007A0290917B02A0917C02B0917D023091F4
:10329000790223E0230F2D3758F50196A11DB11DAA
:1032A0002093790280937A0290937B02A0937C0210
:1032B000B0937D0280917E0290917F02A091800266
:1032C000B09181020196A11DB11D80937E02909361
:1032D0007F02A0938002B0938102BF91AF919F9132
:1032E0008F913F912F910F900FBE0F901F901895C7
:1032F00026E8230F0296A11DB11DD2CF1F920F9277
:103300000FB60F9211242F933F934F935F936F93B8
:103310007F938F939F93AF93BF93EF93FF9380918E
:10332000B900887F803609F44AC0F0F5883209F484
:10333000A7C018F5803109F49BC0B8F4882309F4BC
:10334000F9C0883009F494C0FF91EF91BF91AF911B
:103350009F918F917F916F915F914F913F912F91AD
:103360000F900FBE0F901F901895883109F488C0F8
:10337000803251F78093520214C0803409F49DC00A
:1033800040F48033B9F38833F9F68093520285EC28
:10339000B0C0803509F485C0883509F496C08834FA
:1033A00099F60E94F116D0CF883909F48CC038F50F
:1033B000883729F050F4883611F0803729F683E0F9
:1033C000809353021092510257C0883809F47BC091
:1033D000803919F0803809F0B7CF809151028032DE
:1033E00008F071C0E091510281E08E0F809351028C
:1033F0008091BB00F0E0EF5CFD4F80833DC0803BDF
:1034000039F0E0F4803A09F479C0883A09F09CCFA9
:1034100084E0809353021092300210922F02E091C8
:103420008402F0918502099580912F0281110FC0CD
:1034300081E080932F0210920F0209C0803C09F4B2
:10344000A6CF883C09F4A3CF883B09F07DCFE0915B
:10345000300281E08E0F80933002F0E0E15FFD4F9B
:1034600080818093BB009091300280912F0229C00F
:10347000809178028093BB0085EC8093BC0064CF80
:103480009091770280917602981758F5E091770233
:1034900081E08E0F80937702F0E0EA5AFD4F808141
:1034A000E9CFE091770281E08E0F809377028091DF
:1034B000BB00F0E0EA5AFD4F808390917702809143
:1034C00076029817C8F285E8D8CFE091770281E0BC
:1034D0008E0F809377028091BB00F0E0EA5AFD4F97
:1034E00080838091550281115CCF81E080935402EA
:1034F00084EA8093BC001092530226CF85EC80931F
:10350000BC001092530280915102803230F4E0915D
:103510005102F0E0EF5CFD4F10826091510270E0CB
:10352000E0918202F091830281E392E0099510928A
:1035300051020ACF1092520234CF1092A002109280
:103540009F0288EE93E0A0E0B0E08093A102909308
:10355000A202A093A302B093A4022DE031E0309325
:103560009E0220939D0225EC30E03093AA02209326
:10357000A90224EC30E03093AC022093AB0220ECA3
:1035800030E03093AE022093AD0221EC30E0309376
:10359000B0022093AF0222EC30E03093B2022093CD
:1035A000B10226EC30E03093B4022093B3021092C3
:1035B000B6021092B7021092B8021092B90210929D
:1035C0005D0310925C0380935E0390935F03A0936E
:1035D0006003B09361038FE191E090935B0380936C
:1035E0005A031092A7031092A6031092A9031092F7
:1035F000A8031092AB031092AA0383E090E00E940C
:10360000CC152091A6033091A7038111DAC02115B2
:10361000310519F0C9010E94F8231092A7031092F6
:10362000A6031092AB031092AA031092A903109262
:10363000A803109269031092680320E830E03093E9
:103640006B0320936A0380E490E090936D03809372
:103650006C0330936F0320936E03909371038093F8
:10366000700310927C0310927303109272031092F5
:1036700075031092740381E080937B0380937A0337
:103680002FEF3FEF30937903209378033093770344
:103690002093760380937D0310927E031092800323
:1036A00010927F0381E391E0909367038093660318
:1036B00010928203109281038AE593E09093840331
:1036C0008093830310928603109285038FEF80937B
:1036D0008A0380938B0380938C0380938D03809364
:1036E0008E0380E89AE1A6E0B0E080939B0390937C
:1036F0009C03A0939D03B0939E0380EA96E8A1E00B
:10370000B0E080939F039093A003A093A103B09394
:10371000A20380E58093A4031092A50384E0809324
:103720003E0361E00E940E0761E084E00E94E00633
:1037300080E498E7ADE7B1E08093420390934303C0
:10374000A0934403B09345031092400310924103A9
:1037500010923F0380E090E290933D0380933C03FE
:1037600090933B0380933A0380E090E0AAE7B4E4AF
:1037700080934A0390934B03A0934C03B0934D0363
:103780008093460390934703A0934803B093490363
:103790001092520310925303109254031092550347
:1037A00010924E0310924F03109250031092510347
:1037B0001092570310925603109259031092580317
:1037C000089583E090E09093AB038093AA036FE6A3
:1037D00071E0C9010E945C252CCF789484B5826089
:1037E00084BD84B5816084BD85B5826085BD85B5A5
:1037F000816085BD80916E00816080936E00109223
:10380000810080918100826080938100809181009D
:10381000816080938100809180008160809380002E
:103820008091B10084608093B1008091B00081608C
:103830008093B00080917A00846080937A008091B8
:103840007A00826080937A0080917A008160809310
:103850007A0080917A00806880937A001092C1008B
:10386000E091AD02F091AE0282E08083E091A90286
:10387000F091AA021082E091AB02F091AC028FECC1
:1038800080831092B502E091B102F091B20286E01D
:103890008083E091AF02F091B002808180618083EB
:1038A000E091AF02F091B002808188608083E09166
:1038B000AF02F091B002808180688083E091AF0216
:1038C000F091B00280818F7D80830E94E41164E6D4
:1038D00070E080E090E00E94810780E091E00E942B
:1038E000D6126FE070E080E090E00E94810760E017
:1038F00088E00E940E0760E087E00E940E0762E009
:1039000089E00E940E0788E00E94B7069093960215
:103910008093950260E080E10E940E0760E081E103
:103920000E940E0760E084E10E940E0760E085E1DE
:103930000E940E078091850390918603892B11F1D7
:103940000E94CF1620916C0330916D0380916A0321
:1039500090916B03213231050CF04AC0B9016052DD
:10396000710977FF02C06F5F7F4F75956795835729
:10397000910997FD019600E210E023E730E044EE64
:1039800055E049C020916C0330916D03C901079641
:1039900097FD079623E0959587952A95E1F7209165
:1039A0006A0330916B03AC01429FC001439F900DAD
:1039B000529F900D11240E945C2390938603809364
:1039C0008503892B09F0BCCFC4E8DAE0FE016491DD
:1039D000662339F08DE992E00E9421062196892B19
:1039E000A9F769E571E08DE992E00E940E15FFCF1D
:1039F000B9016054710977FF02C06F5F7F4F759501
:103A000067958255910997FD019600E410E022E543
:103A100030E044EC57E0959587950E94000F82E0D6
:103A2000809388038091830390918403892B09F408
:103A3000ACC28CE3809387031092870210928602B7
:103A400010929A02109299020E9436108FE795E028
:103A5000909385028093840280E895E0909383029E
:103A60008093820280918E0387FD1EC061E00E94D8
:103A70000E0761E080918E030E94E00661E070E035
:103A800080E090E00E94810760E080918E030E94B8
:103A9000E0066AE070E080E090E00E94810761E06B
:103AA00080918E030E94E0068091830390918403AD
:103AB000892B09F4F7C220919B0330919C0340911C
:103AC0009D0350919E0360E074E284EF90E00E94B9
:103AD0002C232051310941095109569547953795B5
:103AE00027952093B80064E08EEA95E00E942112A9
:103AF00060916C03615086E693E00E94251364E0B8
:103B00008AEA95E00E9421128091880360E1813069
:103B100009F064E186E693E00E94251364E086EAFA
:103B200095E00E9421128FE88093A30380916A039D
:103B300090916B038038910509F0CDC280916C03A0
:103B400090916D038034910509F0D5C2809188036E
:103B5000813009F0BEC28FE98093A303C2E16AED10
:103B600086E693E00E9425136C2F86E693E00E9480
:103B7000251361E886E693E00E9425136091A30374
:103B800086E693E00E94251369ED86E693E00E94A5
:103B900025138091880362E2813009F061EF86E6A7
:103BA00093E00E94251366E080EA95E00E942112CE
:103BB0008091830390918403892B09F4A0C2209102
:103BC0009F033091A0034091A1035091A20360E0B4
:103BD00074E284EF90E00E942C23205131094109C6
:103BE000510956954795379527952093B8000E941F
:103BF000CF1682E080937A0380937B0381E090E08C
:103C0000909379038093780390937703809376035E
:103C1000CAE0D0E0D0937303C0937203D0937503CE
:103C2000C09374038CE591E00E947E15D0937303DA
:103C3000C093720389E190E09093750380937403BD
:103C40008BE991E00E947E15D0937303C0937203B9
:103C500083E290E0909375038093740389EA91E086
:103C60000E947E15D0937303C09372038DE290E09F
:103C700090937503809374038CEB91E00E947E1502
:103C80000E94871360ED77E080E090E00E9481075A
:103C90000E942917CC24C39408EE13E0C0E0D0E0C2
:103CA000EE24E394F12CDD24D39488E00E94B7063F
:103CB00090939802809397022091950230919602FA
:103CC0008217930739F1019729F587E00E94B7061B
:103CD0002091010130910201019709F41AC221508B
:103CE00031093093020120930101809101019091EB
:103CF00002011816190624F0F0920201E092010167
:103D000060910101709102018DE992E00E9491158C
:103D10000E942917809197029091980290939602A1
:103D20008093950289E00E94B706892B09F04EC066
:103D30000E94B3078090910290909202A09093020B
:103D4000B0909402681979098A099B096D3D710543
:103D500081059105D8F180918F0290919002019692
:103D6000833091050CF0D8C19093900280938F021C
:103D700080918F0290919002892B31F48FE691E02F
:103D80000E94FA150E94291780918F02909190024B
:103D9000019731F483E791E00E94FA150E942917F8
:103DA00080918F0290919002029731F487E791E021
:103DB0000E94FA150E9429170E94B307609391028E
:103DC00070939202809393029093940280E10E94F8
:103DD0004A074E972CF50E94B3078090910290906D
:103DE0009202A0909302B0909402681979098A090E
:103DF0009B096D3D71058105910590F0D092000100
:103E000010928E0210928D020E9429170E94B30711
:103E10006093910270939202809393029093940224
:103E200081E10E944A074E97E4F50E94B307809013
:103E3000910290909202A0909302B090940268191F
:103E400079098A099B096D3D71058105910548F144
:103E500010920001D0928E0210928D0220910101E9
:103E600030910201209FC001219F900D309F900D45
:103E70001124092E000CAA0BBB0B8093890290938E
:103E80008A02A0938B02B0938C020E9429170E9491
:103E9000B307609391027093920280939302909380
:103EA000940284E10E944A074E97BCF50E94B30732
:103EB0008090910290909202A0909302B090940210
:103EC000681979098A099B096D3D7105810591057C
:103ED00020F11092000110928E02D0928D02A091DA
:103EE0000101B091020120E432E44FE050E00E9471
:103EF0004E236093890270938A0280938B02909381
:103F00008C020E9429170E94B3076093910270935C
:103F10009202809393029093940285E10E944A0753
:103F20004E9744F50E94B3078090910290909202C0
:103F3000A0909302B0909402681979098A099B09AC
:103F40006D3D710581059105A8F0809188028C2551
:103F50008093880280933F030E94F4120E942917E5
:103F60000E94B30760939102709392028093930230
:103F700090939402209709F498CE0E94EB05882331
:103F800009F493CE0E94000090CE61E080918C03F2
:103F90000E940E0761E080918D030E940E078091C0
:103FA0008C03082E000C990BFC01E053FA4FE491AE
:103FB000F0E0EE0FFF1FEA53FA4F25913491309352
:103FC000940320939303FC01EE54FA4FE491E093A1
:103FD000990380918D03082E000C990BFC01E0538E
:103FE000FA4FE491F0E0EE0FFF1FEA53FA4FA5916C
:103FF000B491B0939603A0939503FC01EE54FA4F4D
:10400000E491E0939A038C91E82BEC9380918103E7
:1040100090918203892B19F00E94E41123CD61E075
:1040200080918A030E940E0761E080918B030E94B9
:104030000E0780918A03082E000C990BFC01E053B7
:10404000FA4FE491F0E0EE0FFF1FEA53FA4F25918B
:1040500034913093900320938F03FC01EE54FA4F78
:10406000E491E093970380918B03082E000C990B49
:10407000FC01E053FA4FE491F0E0EE0FFF1FEA532A
:10408000FA4FA591B491B0939203A0939103FC01D0
:10409000EE54FA4FE491E09398038C91E095E82375
:1040A000EC93E0CC8091810390918203892B31F0D5
:1040B0008091A4039091A5030E94160AE0919503B4
:1040C000F0919603908180919A0380958923808353
:1040D0000ACD8FEC41CD8036910569F480916C0357
:1040E00090916D03409739F480918803813029F4D1
:1040F00080E18093A303C2E032CD8FEAFACFE09152
:104100009503F0919603808190919A03892B808387
:104110006ECD2F5F3F4FE5CD1092900210928F022F
:1041200027CE81E391E090936703809366038091AB
:10413000850390918603009711F00E94F8238091E7
:10414000A6039091A703009711F00C94F82308950B
:104150000E94EA2008F481E00895E89409C097FBE2
:104160003EF490958095709561957F4F8F4F9F4F4E
:104170009923A9F0F92F96E9BB279395F695879592
:1041800077956795B795F111F8CFFAF4BB0F11F455
:1041900060FF1BC06F5F7F4F8F4F9F4F16C08823FC
:1041A00011F096E911C0772321F09EE8872F762F32
:1041B00005C0662371F096E8862F70E060E02AF073
:1041C0009A95660F771F881FDAF7880F969587955F
:1041D00097F90895990F0008550FAA0BE0E8FEEF34
:1041E00016161706E807F907C0F012161306E407BB
:1041F000F50798F0621B730B840B950B39F40A26B4
:1042000061F0232B242B252B21F408950A2609F491
:10421000A140A6958FEF811D811D08950E94212147
:104220000C9492210E94842138F00E948B2120F06E
:10423000952311F00C947B210C94812111240C9472
:10424000C6210E94A32170F3959FC1F3950F50E002
:10425000551F629FF001729FBB27F00DB11D639F38
:10426000AA27F00DB11DAA1F649F6627B00DA11DDE
:10427000661F829F2227B00DA11D621F739FB00D84
:10428000A11D621F839FA00D611D221F749F3327F4
:10429000A00D611D231F849F600D211D822F762F8D
:1042A0006A2F11249F5750409AF0F1F088234AF06A
:1042B000EE0FFF1FBB1F661F771F881F91505040D6
:1042C000A9F79E3F510580F00C947B210C94C621E8
:1042D0005F3FE4F3983ED4F3869577956795B7955D
:1042E000F795E7959F5FC1F7FE2B880F911D969577
:1042F000879597F9089597F99F6780E870E060E0E7
:1043000008959FEF80EC089500240A94161617066E
:1043100018060906089500240A94121613061406B6
:1043200005060895092E0394000C11F4882352F019
:10433000BB0F40F4BF2B11F460FF04C06F5F7F4FD1
:104340008F4F9F4F089557FD9058440F551F59F0B8
:104350005F3F71F04795880F97FB991F61F09F3F72
:1043600079F087950895121613061406551FF2CF9B
:104370004695F1DF08C0161617061806991FF1CFEB
:1043800086957105610508940895E894BB27662712
:104390007727CB0197F908950E940E22A59F900DD3
:1043A000B49F900DA49F800D911D112408952F920C
:1043B0003F924F925F926F927F928F929F92AF92B5
:1043C000BF92CF92DF92EF92FF920F931F93CF9302
:1043D000DF93CDB7DEB7CA1BDB0B0FB6F894DEBF99
:1043E0000FBECDBF09942A88398848885F846E84BF
:1043F0007D848C849B84AA84B984C884DF80EE8009
:10440000FD800C811B81AA81B981CE0FD11D0FB611
:10441000F894DEBF0FBECDBFED010895A29FB0019D
:10442000B39FC001A39F700D811D1124911DB29FE8
:10443000700D811D1124911D08950E9431220C944C
:1044400092210E948B2158F00E94842140F029F48F
:104450005F3F29F00C947B2151110C94C6210C94E0
:1044600081210E94A32168F39923B1F3552391F38D
:10447000951B550BBB27AA2762177307840738F0D3
:104480009F5F5F4F220F331F441FAA1FA9F335D030
:104490000E2E3AF0E0E832D091505040E695001CE4
:1044A000CAF72BD0FE2F29D0660F771F881FBB1F9E
:1044B000261737074807AB07B0E809F0BB0B802D7C
:1044C000BF01FF2793585F4F3AF09E3F510578F0A8
:1044D0000C947B210C94C6215F3FE4F3983ED4F307
:1044E000869577956795B795F7959F5FC9F7880F7C
:1044F000911D9695879597F90895E1E0660F771FCE
:10450000881FBB1F621773078407BA0720F0621B5E
:10451000730B840BBA0BEE1F88F7E09508950E9489
:1045200096226894B1110C94C62108950E94AB2183
:1045300088F09F5798F0B92F9927B751B0F0E1F064
:10454000660F771F881F991F1AF0BA95C9F714C014
:10455000B13091F00E94C521B1E008950C94C521BD
:10456000672F782F8827B85F39F0B93FCCF386954D
:1045700077956795B395D9F73EF4909580957095AA
:1045800061957F4F8F4F9F4F08950E94842120F0A7
:1045900019F00E948B2150F40C9481210C94C621B7
:1045A000E92F0E94A32188F35523B1F3E7FB62179B
:1045B000730784079507A8F189F3E92FFF2788235C
:1045C0002AF03197660F771F881FDAF7952F552746
:1045D000442332F091505040220F331F441FD2F732
:1045E000BB27E91BF50B621B730B840BB109B1F2FE
:1045F00022F4620F731F841FB11D31972AF0660FDA
:10460000771F881FBB1FEFCF9150504062F041F0E1
:10461000882332F0660F771F881F91505040C1F7F2
:1046200093950C9419238695779567959F5FD9F795
:10463000F7CF9F3F31F0915020F48795779567959C
:10464000B795880F911D9695879597F908950E94C3
:10465000EA2008F48FEF0895A1E21A2EAA1BBB1BD3
:10466000FD010DC0AA1FBB1FEE1FFF1FA217B3073E
:10467000E407F50720F0A21BB30BE40BF50B661F54
:10468000771F881F991F1A9469F760957095809518
:1046900090959B01AC01BD01CF010895B7FF0C942B
:1046A000CC210E94CC21821B930B0895EE0FFF1F9B
:1046B0000590F491E02D09940F931F93CF93DF930E
:1046C0008230910510F482E090E0E091AE03F09129
:1046D000AF0330E020E0B0E0A0E0309799F421157E
:1046E000310509F44AC0281B390B24303105D8F5AF
:1046F0008A819B816115710589F1FB019383828316
:10470000FE0111C040815181028113814817590770
:10471000E0F04817590799F4109761F012960C933E
:10472000129713961C933296CF01DF91CF911F9170
:104730000F9108950093AE031093AF03F4CF2115AA
:10474000310551F04217530738F0A901DB019A01F6
:10475000BD01DF01F801C1CFEF01F9CF9093AF03A5
:104760008093AE03CDCFFE01E20FF31F81939193AF
:104770002250310939832883D7CF2091AC0330915F
:10478000AD03232B41F420910501309106013093B4
:10479000AD032093AC032091030130910401211556
:1047A000310541F42DB73EB7409107015091080102
:1047B000241B350BE091AC03F091AD03E217F30736
:1047C000A0F42E1B3F0B2817390778F0AC014E5F81
:1047D0005F4F2417350748F04E0F5F1F5093AD030E
:1047E0004093AC03819391939FCFF0E0E0E09CCFA6
:1047F000CF93DF930097E9F0FC0132971382128286
:10480000A091AE03B091AF03ED0130E020E010972E
:10481000A1F420813181820F931F2091AC0330914C
:10482000AD032817390709F061C0F093AD03E09399
:10483000AC03DF91CF910895EA01CE17DF07E8F5C9
:104840004A815B819E0141155105B1F7E901FB8366
:10485000EA8349915991C40FD51FEC17FD0761F404
:10486000808191810296840F951FE9019983888345
:10487000828193819B838A83F0E0E0E012968D91A0
:104880009C9113970097B9F52D913C911197CD010B
:104890000296820F931F2091AC033091AD0328172D
:1048A000390739F6309751F51092AF031092AE03E5
:1048B000B093AD03A093AC03BCCFD383C28340813C
:1048C0005181840F951FC817D90761F44E5F5F4F60
:1048D00088819981480F591F518340838A819B8128
:1048E000938382832115310509F0B0CFF093AF0394
:1048F000E093AE039ECFFD01DC01C0CF1382128294
:10490000D7CFB0E0A0E0E7E8F4E20C94D9218C0125
:10491000009751F4CB010E945C238C01C801CDB7F4
:10492000DEB7E0E10C94F521FC01E60FF71F9C01D6
:1049300022503109E217F30708F49DC0D901CD9147
:10494000DC911197C617D70798F0C530D10530F321
:10495000CE0104978617970708F3C61BD70B22973B
:10496000C193D1936D937C93CF010E94F823D6CF4E
:104970005B01AC1ABD0A4C018C0E9D1EA091AE03CA
:10498000B091AF03512C412CF12CE12C109731F553
:104990008091AC039091AD038815990509F05CC036
:1049A0004616570608F058C0809103019091040103
:1049B000009741F48DB79EB74091070150910801CF
:1049C000841B950BE817F90708F055C0F093AD0369
:1049D000E093AC03F90171836083A0CF8D919C912A
:1049E000119712966C90129713967C901397A815B6
:1049F000B90559F56C0142E0C40ED11CCA14DB04A0
:104A000020F1AC014A195B09DA011296159780F082
:104A10006282738251834083D9016D937C93E11448
:104A2000F10471F0D7011396FC93EE93129776CFB1
:104A300022968C0F9D1FF90191838083F301EFCFA4
:104A4000F093AF03E093AE0369CF4816590608F41C
:104A50002C017D01D3019ACFCB010E945C237C0104
:104A6000009749F0AE01B8010E944325C8010E9499
:104A7000F823870153CF10E000E050CF81E090E0B1
:104A8000F8940C946325FB01DC0102C001900D92A7
:104A900041505040D8F70895DC0101C06D9341505A
:104AA0005040E0F70895FB01DC018D9101908019E1
:104AB0000110D9F3990B0895FB01DC0101900D92CF
:104AC0000020E1F7089515E0C3E5D5E004C0FE013C
:104AD0000E9456232196C435D107C9F7F894FFCF19
:104AE0000101000000B003800000000000210681E9
:104AF00005AE056E06DF05BD05D10500000000CB43
:104B0000109E10E1117E05971084107510000000B2
:104B100000540C8105E1110E1066097E05F90ED1D5
:104B20000EED0EE10E610F7E051A0AB814D6081FAD
:104B3000091A0EFD0D850D260D0D0A0046756E63D2
:104B400074696F6E2047656E657261746F72005391
:104B5000494E005351520054524900487A004B6864
:104B60007A004D687A004F7574707574204F4E004E
:104B70004F7574707574204F464600416E6B7573A7
:104B8000682044617261646500536875626861649D
:104B9000612044616E646177617465004865746189
:084BA0006C204B696E690000F6
:00000001FF
