:100000000C946C060C9422180C94FB170C94940618
:100010000C9494060C9494060C9494060C949406F8
:100020000C9494060C9494060C9494060C949406E8
:100030000C9494060C9494060C9494060C949406D8
:100040000C94B1170C9494060C9494060C9494069A
:100050000C9494060C9494060C9494060C949406B8
:100060000C9449180C94940600407A10F35A00A09E
:10007000724E18090010A5D4E80000E87648170071
:1000800000E40B54020000CA9A3B000000E1F505B1
:10009000000080969800000040420F000000A086FB
:1000A00001000000102700000000E803000000002D
:1000B0006400000000000A000000000001000000D1
:1000C00000002C76D888DC674F0823DFC1DFAE59EB
:1000D000E1B1B796E5E3E453C63AE651997696E87E
:1000E000E6C28426EB898C9B62ED407C6FFCEFBC02
:1000F0009C9F40F2BAA56FA5F490055A2AF75C932D
:100100006B6CF9676DC11BFCE0E40D47FEF520E662
:10011000B500D0ED902E0300943577050080841E45
:10012000080000204E0A000000C80C333333330FA0
:10013000986E12831141EF8D2114893BE65516CF3D
:10014000FEE6DB18D1844B381BF77C1D901DA4BB49
:10015000E424203284725E228100C9F124ECA1E5FE
:100160003D27413530560041203556002035305668
:100170000020323056002031305600202035560005
:1001800020203256002020315600302E35560030C7
:100190002E3256003230306D73003130306D7300C6
:1001A0002035306D73002032306D73002031306D9A
:1001B00073002020356D73002020326D73002020E5
:1001C000316D730035303075730032303075730027
:1001D000620167016C01710176017B01800185017B
:1001E0008A018F0194019A01A001A601AC01B2011C
:1001F000B801BE01C401CA0100000000003E5B4F0F
:100200005B3E3E6B4F6B3E1C3E7C3E1C183C7E3C76
:10021000181C577D571C1C5E7F5E1C00183C180084
:10022000FFE7C3E7FF0018241800FFE7DBE7FF3014
:10023000483A060E2629792926407F050507407F82
:1002400005253F5A3CE73C5A7F3E1C1C08081C1CF5
:100250003E7F14227F22145F5F005F5F06097F01EB
:100260007F006689956A606060606094A2FFA294D6
:1002700008047E040810207E201008082A1C0808A4
:100280001C2A08081E101010100C1E0C1E0C3038F2
:100290003E3830060E3E0E06000000000000005FF3
:1002A00000000007000700147F147F14242A7F2A0F
:1002B00012231308646236495620500008070300D1
:1002C000001C2241000041221C002A1C7F1C2A081D
:1002D000083E080800807030000808080808000080
:1002E00060600020100804023E5149453E00427FF4
:1002F000400072494949462141494D331814127F43
:100300001027454545393C4A4949314121110907E2
:100310003649494936464949291E00001400000063
:100320004034000000081422411414141414004135
:1003300022140802015909063E415D594E7C1211F2
:10034000127C7F494949363E414141227F4141412A
:100350003E7F494949417F090909013E41415173A5
:100360007F0808087F00417F41002040413F017F16
:10037000081422417F404040407F021C027F7F04DE
:1003800008107F3E4141413E7F090909063E415127
:10039000215E7F09192946264949493203017F0117
:1003A000033F4040403F1F2040201F3F4038403F18
:1003B000631408146303047804036159494D43002E
:1003C0007F4141410204081020004141417F040265
:1003D00001020440404040400003070800205454FC
:1003E00078407F28444438384444442838444428DA
:1003F0007F385454541800087E090218A4A49C782D
:100400007F0804047800447D40002040403D007F88
:100410001028440000417F40007C047804787C0868
:100420000404783844444438FC182424181824243C
:1004300018FC7C08040408485454542404043F4421
:10044000243C4040207C1C2040201C3C4030403C50
:1004500044281028444C9090907C4464544C4400B0
:100460000836410000007700000041360800020114
:100470000204023C2623263C1EA1A161123A404000
:10048000207A38545455592155557941225454787D
:1004900042215554784020545579400C1E52721216
:1004A000395555555939545454593955545458009F
:1004B00000457C410002457D420001457C407D12A3
:1004C00011127DF0282528F07C5455450020545405
:1004D0007C547C0A097F4932494949323A444444B0
:1004E0003A324A4848303A4141217A3A42402078EB
:1004F000009DA0A07D3D4242423D3D4040403D3CEC
:1005000024FF2424487E4943662B2FFC2F2BFF0910
:1005100029F620C0887E0903205454794100004404
:100520007D413048484A32384040227A007A0A0AEF
:10053000727D0D19317D2629292F28262929292662
:1005400030484D4020380808080808080808382FA7
:1005500010C8ACBA2F102834FA00007B0000081431
:100560002A142222142A14085500550055AA55AA07
:1005700055AAFF55FF55FF000000FF00101010FFA7
:1005800000141414FF001010FF00FF1010F010F002
:10059000141414FC001414F700FF0000FF00FF14F3
:1005A00014F404FC141417101F10101F101F14143F
:1005B000141F00101010F0000000001F1010101089
:1005C0001F10101010F010000000FF10101010107D
:1005D00010101010FF10000000FF140000FF00FFBB
:1005E00000001F10170000FC04F414141710171457
:1005F00014F404F40000FF00F71414141414141479
:10060000F700F7141414171410101F101F141414EB
:10061000F4141010F010F000001F101F0000001F55
:1006200014000000FC140000F010F01010FF10FF88
:10063000141414FF141010101F00000000F010FF1D
:10064000FFFFFFFFF0F0F0F0F0FFFFFF0000000001
:1006500000FFFF0F0F0F0F0F3844443844FC4A4A85
:100660004A347E02020606027E027E02635549413A
:10067000633844443C04407E201E2006027E020271
:1006800099A5E7A5991C2A492A1C4C7201724C3085
:100690004A4D4D303048784830BC625A463D3E495C
:1006A0004949007E0101017E2A2A2A2A2A44445F00
:1006B000444440514A444040444A51400000FF01F4
:1006C00003E080FF000008086B6B08361236243602
:1006D000060F090F06000018180000001010003067
:1006E00040FF0101001F01011E00191D1712003CEF
:1006F0003C3C3C0000000000000103070F1F3F7F4F
:100700000080C0E0F0F8FCFE00000000230026009E
:100710002900000000080002010000030407000097
:1007200000000000000000000000240027002A0054
:10073000DB40A4A62EAF2000A1C8D300408DAED5CB
:1007400080A8010204081020408001020408102043
:1007500001020408102000000000250028002B00E2
:100760000404040404040404020202020202030357
:10077000030303030000600000000000000000000D
:100780000000000000E00000000000000000000089
:1007900000000001E0000000000000000000000078
:1007A000000001F000000000000000000000000058
:1007B0000003F00000000000000000000000000046
:1007C00007F000000000000000000000000000072B
:1007D000F8000000000000000000000000000FF81A
:1007E00000000003C0007E000001E0007F0FF80061
:1007F000000003C000FE000001E000FFEFF8000071
:100800000003C000FE000001E000FFFFF800000050
:1008100003C000F00000000F007FFE7FC000000357
:10082000C000F00000000F003FFE7FF83FF1FBCF5B
:10083000FCFEF3BC3DEFE01FFE7FFF7FFBFFDFFE12
:10084000FEFFBC3DEFE01FC6FFFF7FFBFFDFFEFEAC
:10085000FFBC3DEFE00FE3C7FE787BC3DE1EF0FF79
:10086000BC3DEF0007FF87FC787BC3DE1EF0F83C41
:100870003DEF0001FFFFF0007BC3C01EF0F03C3DE8
:10088000EF0001F37FE03FFBC3CFFEF0F03C3DEF14
:100890000003E33F807FFBC3DFFEF0F03C3DEF0051
:1008A00007E73C00787BC3DE1EF0F03C3DEF00071D
:1008B000FFBE00787BC3DE1EF0F03C3DEF0007FF7B
:1008C000FE00787BC3DE1EF0F03C3DEF000FFFFE24
:1008D000007FFBFFDFFEF0F03FFDEFE00FFFFF00CA
:1008E0007FFBFFDFFEF0F03FFDEFE00FF9FF003E82
:1008F00079F9CF9EF0F01F3DE7E01FF1FF00000007
:100900000000000000000000001F80FF007FFFFFCC
:10091000FFFFFFFFFFFFFFE01C007F007FFFFFFFE7
:10092000FEB46D888D18E000001F007FFFFFFFFE02
:1009300095AD7DB577E000000F007FFFFFFFFEA5BE
:10094000AD9D8D19E0000006007FFFFFFFFEB5ADF5
:10095000EDB57EE000000000000180000000000016
:1009600000000000038000000000000000000007FD
:10097000C000000000000000000007C000000000F0
:1009800000000000000FC000000000000000000098
:100990001FE00000000000000000001FE000000059
:1009A0000000000000003FE0000000000000000028
:1009B000003FF00000000000000000007FF0000099
:1009C00000000000001FF87FF000000000000000A1
:1009D0003FFE7FF0000000000000003FFF7FF000BE
:1009E0000000000000001FFFFBE00000000000000E
:1009F000000FFFF9FFC00000000000000FFFF9FF2B
:100A0000F800000000000007FFF1FFFF00000000F9
:100A1000000003FC73FFFF80000000000001FE3FA8
:100A2000FFFF80000000000000FF1E0FFF0000001D
:100A3000000000007FFE1FFC000000000000003FDF
:100A4000FFFFF8000000000000000FDFFFE00000E3
:100A500000000000001F19FFC0000000000000009F
:100A60003F3CFF00000000000000007E7CF800001A
:100A70000000000000007FFE7C000000000000007D
:100A800000FFFFFC0000000000000000FFFFFE0070
:100A900000000000000000FFFFFE0000000000005A
:100AA0000001FFEFFE0000000000000001FFCFFE8C
:100AB0000000000000000003FF07FE00000000002F
:100AC000000003FC07FE0000000000000003F0032C
:100AD000FE00000000000000018000FE0000000099
:100AE0000000000000007E00000000000000000088
:100AF000003E000000000000000000000C000000AC
:100B0000000000078000FC000003C0000000078018
:100B100001FC000003C0000000078001FC0000038E
:100B2000C0000000078001E00000001E0000000778
:100B30008001E00000001E007FE3F79FF9FDE778E9
:100B40007BDFC0FFF7FFBFFDFDFF787BDFC0FFF756
:100B5000FFBFFDFDFF787BDFC0F0F787BC3DE1FF05
:100B6000787BDE00F0F787BC3DE1F0787BDE0000AB
:100B7000F787803DE1E0787BDE007FF7879FFDE12E
:100B8000E0787BDE00FFF787BFFDE1E0787BDE00E9
:100B9000F0F787BC3DE1E0787BDE00F0F787BC3DF5
:100BA000E1E0787BDE00F0F787BC3DE1E0787BDEBA
:100BB00000FFF7FFBFFDE1E07FFBDFC0FFF7FFBFF6
:100BC000FDE1E07FFBDFC07CF3F39F3DE1E03E7B96
:100BD000CFC00000000000000000000000FFFFFF89
:100BE000FFFFFFFFFFFFFFC0FFFFFFFFFD68DB11FF
:100BF0001A31C0FFFFFFFFFD2B5AFB6AEFC0FFFF5A
:100C0000FFFFFD4B5B3B1A33C0FFFFFFFFFD6B5B3C
:100C1000DB6AFDC0560044564D20353056205261E7
:100C20006E676500560044564D2035562052616E61
:100C300067650056004261747465727920766F6C46
:100C4000746167650053687562686164612044611E
:100C50006E64617761746500486574616C204B69EE
:100C60006E6900416E6B75736820446172616465E2
:100C700000204F7363696C6C6F73636F70652063E2
:100C80006B742E00CDCC4C3ECDCCCC3DCDCC4C3D70
:100C90000AD7A33C0AD7233C0AD7A33B6F12033BD6
:100CA0006F12833A6F12033A17B7513961762020D9
:100CB0002020560025006B48006B4800487A004809
:100CC0007A00756E53796E6300486F6C6400220081
:100CD000FF21000091194C2711241FBECFEFD8E04F
:100CE000DEBFCDBF11E0A0E0B1E0ECE2FCE502C068
:100CF00005900D92A436B107D9F724E0A4E6B1E03F
:100D000001C01D92A933B207E1F716E0CBE6D6E0A9
:100D100004C02197FE010E94BE2CCA36D107C9F734
:100D20000E94EC190C94092E0C940000089583B1D4
:100D3000982F9770973049F028E833E13093E30318
:100D40002093E20391E09093240280FD15C020914E
:100D5000D8033091D9032F5F3F4F3093D9032093AD
:100D6000D8032091D8033091D9032330310524F0E2
:100D70001092D9031092D80381FD46C02091D80368
:100D80003091D903232BB9F42091DE033091DF0396
:100D90002F5F3F4F3093DF032093DE032091DE036C
:100DA0003091DF032A30310534F029E030E0309310
:100DB000DF032093DE032091D8033091D903213043
:100DC0003105B9F42091DC033091DD032F5F3F4FF3
:100DD0003093DD032093DC032091DC033091DD03AD
:100DE0002A30310534F029E030E03093DD032093E0
:100DF000DC032091D8033091D9032230310521F44E
:100E00001092DB031092DA0382FD42C02091D803D6
:100E10003091D903232BA1F42091DE033091DF031D
:100E2000215031093093DF032093DE032091DE034C
:100E30003091DF0337FF04C01092DF031092DE030E
:100E40002091D8033091D90321303105A1F42091AC
:100E5000DC033091DD03215031093093DD03209311
:100E6000DC032091DC033091DD0337FF04C01092D6
:100E7000DD031092DC032091D8033091D903223096
:100E8000310531F421E030E03093DB032093DA03C5
:100E900083FD06C08091E40391E089278093E403F9
:100EA000089508950895AF92BF92CF92DF92EF9286
:100EB000FF920F931F93CF93DF936C017B018B0104
:100EC000040F151FEB015E01AE18BF08C017D10754
:100ED00059F06991D601ED91FC910190F081E02DDE
:100EE000C6010995892B79F7C501DF91CF911F9133
:100EF0000F91FF90EF90DF90CF90BF90AF9008954B
:100F0000833081F028F4813099F08230A9F008957F
:100F10008730A9F08830C9F08430B1F48091800026
:100F20008F7D03C0809180008F778093800008952B
:100F300084B58F7784BD089584B58F7DFBCF809174
:100F4000B0008F778093B00008958091B0008F7DBE
:100F5000F9CF1F93CF93DF93282F30E0F901EE5E96
:100F6000F84F8491F901EE5BF84FD491F901E05A02
:100F7000F84FC491CC23A9F0162F81110E9480074D
:100F8000EC2FF0E0EE0FFF1FEA5AF84FA591B49155
:100F90008FB7F894EC91111108C0D095DE23DC9343
:100FA0008FBFDF91CF911F910895DE2BF8CFCF93A4
:100FB000DF9390E0FC01EE5BF84F2491805A984F4C
:100FC000FC0184918823C9F090E0880F991FFC01EF
:100FD000EA5DF84FA591B491FC01EA5AF84FC5912A
:100FE000D49161110DC09FB7F8948C912095822304
:100FF0008C938881282328839FBFDF91CF91089508
:10100000623051F49FB7F8943C91822F80958323EE
:101010008C93E8812E2BEFCF8FB7F894EC912E2B89
:101020002C938FBFEACF2091000190E4299F90017B
:101030001124822B80937C0080917A0080648093BD
:101040007A0080917A0086FDFCCF809178009091A3
:10105000790008953FB7F8948091190290911A028F
:10106000A0911B02B0911C0226B5A89B05C02F3F82
:1010700019F00196A11DB11D3FBFBA2FA92F982FBE
:101080008827BC01CD01620F711D811D911D42E0B9
:10109000660F771F881F991F4A95D1F708958F9281
:1010A0009F92AF92BF92CF92DF92EF92FF924B014D
:1010B0005C010E942A086B017C010E942A086C19BD
:1010C0007D098E099F09683E734081059105A8F34B
:1010D00021E0821A9108A108B10888EEC80E83E0C9
:1010E000D81EE11CF11C81149104A104B10429F75C
:1010F000FF90EF90DF90CF90BF90AF909F908F9038
:1011000008950895EF92FF920F931F93CF93DF936B
:10111000EC01EC80FD806E157F050CF070C057FF70
:1011200004C0240F351F50E040E08E819F81FA01FA
:10113000E20FF31F8E179F071CF49C01241B350B35
:10114000121613060CF05BC0922F842F869586959D
:1011500086958E9DD0018F9DB00D11246A0F7B1F47
:10116000AF8DB8A1A60FB71F477049F188E0841B67
:10117000482F682F70E0FB01E050F94FE4912817E9
:1011800008F063C0621B71092FEF30E002C0359593
:1011900027956A95E2F7E2230130110539F0B0F1A5
:1011A0000230110561F58C91E82702C08C91E82B83
:1011B000EC93941720F12C813D81A20FB31FE92FEE
:1011C000E41BE83078F00230110521F58E2F9C9158
:1011D00090959C932C813D81A20FB31F885088303D
:1011E000B0F7E770EE2359F0F0E0E850F94FE491E2
:1011F00001301105F9F010F10230110519F1DF91FC
:10120000CF911F910F91FF90EF900895E0958C91F1
:10121000E823CECF81E00115110509F480E0819526
:101220009E2F8C932C813D81A20FB31F9850983034
:10123000C0F7D7CF8C91E82BEC93E1CFE0958C9160
:10124000E823FACF8C91E827F7CF0130110509F494
:10125000ADCFE0F20230110509F4A5CFAE0DBF1DF0
:10126000AECF0F931F93CF93DF9377FF04C0260F6A
:10127000371F70E060E0DC011496CD91DC91FB013A
:10128000E20FF31FCE17DF071CF49E01261B370B5E
:10129000121613064CF5FA0157FD3796A3E0F595A3
:1012A000E795AA95E1F7EC9FD001ED9FB00DFC9F6B
:1012B000B00D11246A0F7B1FDC015F96ED91FC914C
:1012C000E60FF71F4770552781E090E001C0880FB7
:1012D0004A95EAF7482F0130110559F0A8F02E0F72
:1012E0003F1F02301105E1F0DF91CF911F910F9167
:1012F00008952E0F3F1FE217F307B1F38191DF012D
:101300001197842B8C93F7CF80952E0F3F1FE217F8
:10131000F30751F39191DF01119798239C93F7CF35
:10132000E217F30709F38191DF01119784278C936A
:10133000F7CF0F931F93FA01DC0156964C91569705
:101340004230E9F04330A1F1413061F514964D91FE
:101350005C91DA01AE1BBF0BFD01E21BF30B77FDC5
:101360000BC0DC0116964D915C916417750724F44F
:10137000AB01BF010E9431091F910F91089514968E
:101380004D915C91DA01A61BB70BBD01615071094B
:10139000DC0116964D915C91DA01AE1BBF0BFD018D
:1013A000E21BF30B77FDE8CFAF010E948208E4CF88
:1013B00016964D915C91DA01A61BB70BBD016150E9
:1013C0007109CDCF0F931F93FA01DC0156964C9112
:1013D00056974230A9F0433091F1413019F51496F7
:1013E0004D915C91DA01AE1BBF0BFD013197F7FD0A
:1013F00004C0AB01BF010E9482081F910F910895A4
:1014000014964D915C91DA01A61BB70BBD01DC016E
:1014100016964D915C91DA01AE1BBF0BFD01319721
:10142000621B730BF7FDE9CFDC0116964D915C91C1
:10143000E417F50714F7AF010E943109DECF1696C5
:101440004D915C91DA01A61BB70BBD01621B730BBA
:10145000CECFFC0177FD64C0808591856817790740
:101460000CF05EC057FD5CC0828593854817590714
:101470000CF056C086898230B1F0833029F181307A
:1014800041F484819581841B950BAB01BC016150B3
:1014900071092130310509F108F443C022303105CA
:1014A00009F463C0089584819581DC01A61BB70B04
:1014B000BD016150710986819781DC01A41BB50BC8
:1014C000AD0141505109E5CF86819781861B970B6D
:1014D000BA01AC0141505109DCCFCA0157FD079652
:1014E000A3E095958795AA95E1F7A481B5818A9F98
:1014F00090018B9F300D9A9F300D1124620F731F46
:10150000078CF0A1E02DE60FF71F4770552721E06B
:1015100030E001C0220F4A95EAF78081822B808358
:101520000895CA0157FD079633E0959587953A953A
:10153000E1F7A481B5818A9F90018B9F300D9A9F1E
:10154000300D1124620F731F078CF0A1E02DE60F00
:10155000F71F4770552781E090E001C0880F4A953A
:10156000EAF7809590818923DACFCA0157FD079663
:1015700023E0959587952A95E1F7A481B5818A9F07
:1015800090018B9F300D9A9F300D1124620F731FB5
:10159000078CF0A1E02DE60FF71F4770552721E0DB
:1015A00030E001C0220F4A95EAF780818227B7CF49
:1015B00008958EBD00000DB407FEFDCF8EB50895D1
:1015C0008CBD9DBD08950895FC016370668B848178
:1015D000958126813781613039F0633029F0918718
:1015E0008087338722870895318720879387828772
:1015F00008952F923F924F925F926F927F928F92B7
:101600009F92AF92BF92CF92DF92EF92FF920F9391
:101610001F93CF93DF93CDB7DEB76A970FB6F894D9
:10162000DEBF0FBECDBF9A8F898F7A8369834A014F
:10163000D22E18870F833701BC2CDC0159962D91CF
:101640003C915A972115310509F015C118968D91D5
:101650009C911997681779070CF0D7C11A968D914C
:101660009C91481759070CF0D0C14C2C512CB6E076
:10167000CB9E600D711D11247C876B871616170693
:101680000CF0C3C1EA2DF0E0FA87E98793E0EE0F92
:10169000FF1F9A95E1F7F88BEF87CF01840F951F15
:1016A000181619060CF0B1C1A98DBA8D58968C91F7
:1016B000811104C0BFEABD1508F4D394A98DBA8D79
:1016C000ED91FC9111970284F385E02DCD010995F0
:1016D000B5E0DB9EC0011124E981FA81FC83EB8334
:1016E000312C212C9C0128503E4F388F2F8B4A2DB6
:1016F00050E05E8B4D8BEF89F88DE20DF31D449128
:101700009E828D82D12CC12C69817A81620D731DDC
:101710007A8B698B842F90E09C8B8B8BE98DFA8D73
:10172000A081B18140FF82C0F1E0BF126FC0AF1253
:101730006DC01C96ED91FC912F813885A4014C0D54
:101740005D1D69897A89898D9A8D0995EB89FC8956
:10175000F595E7954E2F5FEFC51AD50A6D817E810D
:101760008D899E89680F791F7E836D8398E0C916E5
:10177000D10481F6AFEF2A1A3A0AEB81FC81E40D1D
:10178000F51DFC83EB83F5E02F16310409F0B3CF90
:101790002F81388526153705B9F0A98DBA8DED91C1
:1017A000FC91B1E0BB1257C0AB1255C069817A8180
:1017B0006B5F7F4F0088F189E02D830128E030E0E6
:1017C000A401898D9A8D0995A98DBA8DED91FC9111
:1017D00011970688F789E02DCD016A960FB6F89427
:1017E000DEBF0FBECDBFDF91CF911F910F91FF9054
:1017F000EF90DF90CF90BF90AF909F908F907F90B1
:101800006F905F904F903F902F9009941E96ED91AE
:10181000FC91EF80F88409851A8592014D815E81E3
:101820006B817C81898D9A8D099590CF2F81388528
:101830002615370509F48ACF31E0B31207C0A31289
:1018400005C01C96ED91FC91930178CF1E96ED9109
:10185000FC917301E0CF6B857C8564197509068462
:10186000F785E02D73010F8518899201A401898DF8
:101870009A8D0995A9CFF9013496949132974591A3
:101880005491D91AB7E0DB9E400D511D1124F90186
:10189000259134913C8B2B8BFA0125903490FA01E1
:1018A0003296749031963491398B32966490319699
:1018B000449041E04C1518F04A1508F07FC0662DA1
:1018C000062C000C770B7C836B83842D042C000C7E
:1018D000990B9E838D83A98DBA8DED91FC91119703
:1018E0000284F385E02DCD010995512CD12CC12C1A
:1018F000EA2DF0E0FA87E9872B2D30E03C872B8733
:10190000A401440D511D47FC5A95588F4F8B698196
:101910007A81660D711D67FC7A957E876D8779895E
:10192000C71608F051CF2C2D30E04D815E81420F5B
:10193000531FA985BA854A9FC0014B9F900D5A9F9E
:10194000900D1124FC01E80DF91DF88BEF87852D12
:10195000612C4F89588D420F531F5E8B4D8B67143E
:1019600008F050C044244394480E877041F4C101EC
:101970000196EB89FC89E20DF31DD4901C01D7FE82
:1019800019C0A98DBA8DED91FC91662D70E0B1E082
:10199000BB1219C0AB1217C02D853E85620F731F95
:1019A0000484F585E02D2F8138854D895E89898DE8
:1019B0009A8D0995DD0C6394842DD1CF1E821D82F2
:1019C0001C821B8288CF4B815C81640F751FAB85A5
:1019D000BC856A9FC0016B9F900D7A9F900D11246A
:1019E00069817A81680F791F0684F785E02DEF8081
:1019F000F88409851A859D014F855889898D9A8DAE
:101A00000995D8CF570CC3948ACF6A960FB6F8942D
:101A1000DEBF0FBECDBFDF91CF911F910F91FF9021
:101A2000EF90DF90CF90BF90AF909F908F907F907E
:101A30006F905F904F903F902F9008958F929F925C
:101A4000AF92CF92EF92FF920F931F93CF93DF93BA
:101A5000EC01262F898D9A8D009709F051C06A30CC
:101A6000D1F41D861C868D8948E0849F9001112445
:101A70008E859F85820F931F9F878E8781E090E0E0
:101A8000DF91CF911F910F91FF90EF90CF90AF908A
:101A90009F908F9008956D3089F3CC88AD888F89A1
:101AA0008823C1F08C859D8536E0C39E800D911DF5
:101AB0001124488559854817590764F44E855F8578
:101AC0001D861C8638E0A39EC0011124840F951F3B
:101AD0009F878E87EA88FB88088919894E855F85EC
:101AE0006C857D85CE010E94F90A2C898C859D85A7
:101AF00046E0249F800D911D11249D878C87BECFC9
:101B00006A3069F41D861C86FC013896E4912D89A3
:101B10008E859F85E29F800D911D1124ADCF6D3084
:101B200009F4ACCFFC0134963491631708F4A6CFC6
:101B30003296E491E61708F4A1CFFC013296859025
:101B40009490462F431B342F47E0349F800C911C08
:101B50001124F401329634913196E4913323A9F1A2
:101B6000EE2399F1CC88F4013596E491AD884F8944
:101B7000442301F10E2E000CFF0BE30FF11DCE9E4E
:101B8000A001CF9E500D11246C857D85460F571FF7
:101B900068857985641775076CF44E855F851D86A9
:101BA0001C86FC013896E491AE9E400D511D112417
:101BB0005F874E87EA88FB88088919894E855F858B
:101BC0006C857D85CE010E94F90AF4013496E4917A
:101BD0002C898C859D85E29F800D911D11248DCFD0
:101BE0000F931F93CF93DF938C01D0E0C0E0F801F7
:101BF000EC0FFD1F6491662341F085EF93E00E9496
:101C00001E0D892B11F02196F2CFCE01DF91CF91DD
:101C10001F910F910895682F85EF93E00C941E0D8E
:101C20006F927F928F929F92AF92BF92CF92DF92EC
:101C3000EF92FF920F931F93CF93DF93EC016B0111
:101C40005A0139014801E881F9810284F385E02DC8
:101C50000995E881F9810288F389E02D87019301D4
:101C6000A501B601CE010995A501480D591D4150A8
:101C70005109E881F9810288F389E02D9301B601C9
:101C8000CE010995E881F9810088F189E02D940160
:101C9000A501B601CE010995C60CD71CB60161504D
:101CA0007109E881F9810088F189E02D9401A5018D
:101CB000CE010995E881F9810688F789E02DCE01EA
:101CC000DF91CF911F910F91FF90EF90DF90CF9018
:101CD000BF90AF909F908F907F906F9009946F927C
:101CE0007F928F929F92AF92BF92CF92DF92EF92AC
:101CF000FF920F931F93CF93DF935C01EB016A0177
:101D0000490138018701DC01ED91FC9162177307ED
:101D100019F5641675062CF0962D872D3A01C92EFB
:101D2000D82E9601261937092F5F3F4F048CF58D69
:101D3000E02DA301BE01C5010995DF91CF911F914F
:101D40000F91FF90EF90DF90CF90BF90AF909F905A
:101D50008F907F906F9008954615570591F4261740
:101D6000370724F0892D4B01C22FD82F9E01281947
:101D700039092F5F3F4F068CF78DE02DA601B40186
:101D8000DACF0284F385E02D0995D501ED91FC9120
:101D90000488F589E02D83019401A601BE01C501E7
:101DA0000995D501ED91FC910688F789E02DC501D3
:101DB000DF91CF911F910F91FF90EF90DF90CF9027
:101DC000BF90AF909F908F907F906F900994EF920B
:101DD000FF920F931F93DC011A960D911C911B9794
:101DE00018962D913C911997ED91FC9100A0F1A1CD
:101DF000E02D7B0150E040E070E060E009951F912C
:101E00000F91FF90EF9008954F925F926F927F92A3
:101E10008F929F92AF92BF92CF92DF92EF92FF92FA
:101E20000F931F93CF93DF936C012B015A0139015C
:101E30004801DC01ED91FC910284F385E02D0995C8
:101E4000E201640C751CD601ED91FC91C615D70515
:101E50005CF40088F189E02D87019401A501BE01A1
:101E6000C60109952196EFCF0688F789E02DC601B6
:101E7000DF91CF911F910F91FF90EF90DF90CF9066
:101E8000BF90AF909F908F907F906F905F904F909A
:101E900009948F929F92AF92BF92CF92DF92EF926E
:101EA000FF920F931F93CF93DF93EC015B014A01E5
:101EB0006901E881F9810284F385E02D0995950196
:101EC0002C0D3D1D21503109E881F9810488F589E7
:101ED000E02D78018401A401B501CE010995E881C6
:101EE000F9810688F789E02DCE01DF91CF911F910E
:101EF0000F91FF90EF90DF90CF90BF90AF909F90A9
:101F00008F9009948F929F92AF92BF92CF92DF925F
:101F1000EF92FF920F931F93CF93DF93EC015B013E
:101F20004A0169017801E881F9810284F385E02D95
:101F30000995C80CD91C860101501109E881F98165
:101F40000488F589E02D9501A401B501CE0109951C
:101F5000E881F9810688F789E02DCE01DF91CF91E4
:101F60001F910F91FF90EF90DF90CF90BF90AF90B7
:101F70009F908F900994EF92FF920F931F93DC0133
:101F8000ED91FC9100A0F1A1E02D09951F910F9119
:101F9000FF90EF9008950F931F93DC01ED91FC915A
:101FA000068CF78DE02D09951F910F9108950F93E1
:101FB0001F93DC01ED91FC91048CF58DE02D0995CA
:101FC0001F910F910895DC01ED91FC910084F18542
:101FD000E02D09943F924F925F926F927F928F9281
:101FE0009F92AF92BF92CF92DF92EF92FF920F93A8
:101FF0001F93CF93DF935C017B014A016901390193
:1020000087E0680E711C93E0759467949A95E1F7E8
:102010002B01400E511E10E000E0312CD0E0C0E05A
:10202000CE0187709927330C892B59F4FE0183E088
:10203000F595E7958A95E1F7E00FF11FE80DF91D99
:10204000349037FE0AC021E030E0A701B5016C0FE3
:102050007D1F85EF93E00E94E30F2196CC16DD06ED
:10206000F9F68FEFE81AF80A060D171DE414F504C7
:10207000A9F6DF91CF911F910F91FF90EF90DF9024
:10208000CF90BF90AF909F908F907F906F905F9018
:102090004F903F9008952F923F924F925F926F9290
:1020A0007F928F929F92AF92BF92CF92DF92EF92E8
:1020B000FF920F931F93CF93DF9300D000D000D0F7
:1020C000CDB7DEB73C016A013E832D83FC82EB82F3
:1020D0005801A41AB50AB7FE03C0B194A194B1087F
:1020E0008D809E80861A970A97FE03C091948194F2
:1020F00091088A149B045CF0902F812F0D811E8122
:102100009D838E839C2D8D2D6B01692F782F0C154F
:102110001D055CF09D818E817E836D83692F782FF4
:10212000902F812F8601C92ED82E1601201A310A30
:102130002B012D813E81421A530A57FE03C0519450
:1021400041945108710137FE03C03FEFE31AF30ACF
:10215000F594E7948D819E81861797075CF5A1E041
:10216000B0E0BA83A983C016D1064CF1D301ED913A
:10217000FC910484F585E02D2B813C81A8016D81C3
:102180007E818A149B041CF04D815E81B801C301DD
:102190000995E418F508F7FE0AC02D813E81898172
:1021A0009A81280F391F3E832D83E20CF31C0F5FA9
:1021B0001F4FD9CF2FEF3FEF3A832983D4CF2696F5
:1021C0000FB6F894DEBF0FBECDBFDF91CF911F9148
:1021D0000F91FF90EF90DF90CF90BF90AF909F90C6
:1021E0008F907F906F905F904F903F902F900895C9
:1021F00008952091CA01260F3327331F213231055C
:10220000ECF42091EE01FC0190E080E0243069F0D4
:1022100082E00895A091CA012191AC0146555E4F1C
:10222000A40FB52FB11D2C930196861798F38091BA
:10223000CA01680F6093CA0180E0089581E00895A3
:102240001092EE0181E08093F0011092EF0161E0C5
:1022500082E10E94A90761E083E10E94A907E9EBFE
:10226000F0E080818E7F808380818D7F808388E411
:102270008093B80085E48093BC000895CF93DF93EA
:1022800091E09093A9018823B9F0C091B800D09152
:10229000BA008091BC008A7B8093BC0060E082E140
:1022A0000E94A90760E083E10E94A9070E94201113
:1022B000D093BA00C093B800DF91CF910895E09118
:1022C000230280912202E81730F4F0E0EC57FE4F31
:1022D000808190E008958FEF9FEF08959091230201
:1022E000809122022FEF3FEF981748F4E92FF0E09A
:1022F000EC57FE4F208130E09F5F90932302C9018D
:1023000008958091220290912302891B990B0895D0
:10231000CF92DF92EF92FF920F931F93CF93DF93B1
:102320007C01CB018A012091E803222389F0EB0193
:102330006B01C40ED51ECC15DD0569F06991D7017E
:10234000ED91FC910190F081E02DC7010995F3CF4B
:10235000642F0E94F910C801DF91CF911F910F9156
:10236000FF90EF90DF90CF900895CF93DF931F926F
:10237000CDB7DEB769832091E8032223F9F02091DD
:10238000E503203258F021E030E0FC013383228362
:1023900090E080E00F90DF91CF9108958091E60367
:1023A000E82FF0E0EC59FE4F998190838F5F809386
:1023B000E6038093E50381E090E0ECCF61E0CE019D
:1023C00001960E94F910F7CFCF92DF92EF92FF9221
:1023D0000F931F93CF93DF93D091E50381E0D13228
:1023E00008F09CC0C091E7030E942A086B017C01A1
:1023F0008091EE0181116CC082E08093EE0181E05A
:102400008093F0018FEF8093ED0110921202D09330
:102410001102A4E6B1E0E1EFF1E080E0D8138DC055
:102420001092130280911302CC0FC82BC093130299
:102430008091EF01813009F084C01092EF010E9479
:102440002A086B017C01809113028093BB0080916C
:10245000A5019091A601A091A701B091A801892B97
:102460008A2B8B2BA1F00E942A080091A5011091C4
:10247000A6012091A7013091A8016C197D098E0950
:102480009F09061717072807390708F442C08091EB
:10249000BC0083FDD8CF85EC8093BC000E942A0845
:1024A0006B017C018091EE01823009F44CC0809177
:1024B000ED018F3F09F469C08091ED01803209F48C
:1024C00066C08091ED01803309F463C084E026C0CA
:1024D0008091A5019091A601A091A701B091A801BA
:1024E000892B8A2B8B2B09F483CF0E942A08009119
:1024F000A5011091A6012091A7013091A8016C19A6
:102500007D098E099F09061717072807390708F064
:102510006FCF8091A4010E943E1185E01092E603E6
:102520001092E5031092E803DF91CF911F910F9174
:10253000FF90EF90DF90CF9008959D9191938F5FE2
:102540006DCF85EEA9CF8091A5019091A601A091B4
:10255000A701B091A801892B8A2B8B2B09F4A2CF5C
:102560000E942A080091A5011091A6012091A701BF
:102570003091A8016C197D098E099F09061717076C
:102580002807390708F08ECFC4CF80E0C7CF82E09C
:10259000C5CF83E0C3CFEF92FF920F931F93CF93EA
:1025A000DF937C01C62F8091120490911304009751
:1025B00009F459C02091160431E03093E8032093C8
:1025C000E7031092E6031092E503DC01ED91FC9124
:1025D0000190F081E02D60E009958701EE24E394FD
:1025E000F12CD1E0C1508091120490911304CF3F9F
:1025F00091F1B0E2EB16F104D8F00E94E411809161
:1026000012049091130420911604D093E8032093B0
:10261000E7031092E6031092E503DC01ED91FC91D3
:102620000190F081E02D60E00995EE24E394F12C17
:102630008091120490911304F8016491DC01ED91F2
:10264000FC910190F081E02D0995BFEFEB1AFB0A98
:102650000F5F1F4FC7CFDF91CF911F910F91FF9059
:10266000EF900C94E411E0912204F0912304908106
:10267000809128048095892380838701C15008F4C4
:1026800038C0F80184912091100430911104232B5B
:1026900029F00E94D90A0F5F1F4FF0CF28E030E0E9
:1026A00040E8E0911E04F0911F0490912604582FF9
:1026B0005423D9F05081952B9083E0912004F09120
:1026C0002104908150912704952B9083E091200460
:1026D000F091210450819091270490959523908347
:1026E000469521503109E9F6D6CF50819095952332
:1026F000E3CFDF91CF911F910F91FF90EF9008955D
:102700001F93CF93DF93EC018D8D9E8D009721F168
:10271000162F29A131E03093E8032093E7031092AC
:10272000E6031092E503DC01ED91FC910190F0814C
:10273000E02D60E009958D8D9E8DDC01ED91FC9181
:102740000190F081E02D612F09958D8D9E8DDF9197
:10275000CF911F910C94E411ADA5BEA59C918BA9BE
:10276000809589238C938B8D9C8D892B31F0862FBE
:10277000DF91CF911F910C94D90A28E030E080E8D6
:10278000A9A5BAA599A9462F4823C1F04C91942B2D
:102790009C93ABA5BCA59C914AA9942B9C93ABA5FB
:1027A000BCA54C919AA9909594239C938695215011
:1027B000310931F7DF91CF911F9108954C91909598
:1027C0009423E6CFDF92EF92FF920F931F93CF9364
:1027D000DF938091120490911304892B09F498C01F
:1027E00020912A0430912B0440912C0450912D0407
:1027F00060E074E284EF90E00E94362A20513109B3
:102800004109510956954795379527952093B8006A
:1028100065E08EEC9CE00E94CB126091F903615060
:1028200085EF93E00E9480132091FB033091FC031D
:10283000C901079697FD079633E0959587953A95D8
:10284000E1F72091F9033091FA03829F8001839F81
:10285000100D929F100D1124C0911404D0911504F5
:1028600080911204909113040C0F1D1F009709F41E
:102870008FC02091160431E03093E8032093E703E2
:102880001092E6031092E503DC01ED91FC910190BA
:10289000F081E02D60E40995EE24E394F12CDD2431
:1028A000D39480911204909113040C171D0709F41E
:1028B00046C0B0E2EB16F104D8F00E94E41180911A
:1028C00012049091130420911604D092E8032093EF
:1028D000E7031092E6031092E503DC01ED91FC9111
:1028E0000190F081E02D60E40995EE24E394F12C51
:1028F00080911204909113046991DC01ED91FC9197
:102900000190F081E02D0995BFEFEB1AFB0AC9CFCA
:102910008091100490911104892B31F0809133043F
:10292000909134040E94E00AE0912404F09125047F
:1029300090818091290480958923808369CF0E94AA
:10294000E4118091120490911304892B09F461C061
:1029500020912E0430912F04409130045091310485
:1029600060E074E284EF90E00E94362A2051310941
:102970004109510956954795379527952093B800F9
:10298000DF91CF911F910F91FF90EF90DF9008950D
:10299000E0912204F0912304808190912804892BF6
:1029A00080830C171D0769F28991209110043091E2
:1029B0001104232B19F00E94D90AF3CF28E030E04C
:1029C00040E8E0911E04F0911F0490912604582FD6
:1029D0005423D9F05081952B9083E0912004F091FD
:1029E0002104908150912704952B9083E09120043D
:1029F000F091210450819091270490959523908324
:102A0000469521503109E9F6CCCF50819095952318
:102A1000E3CFE0912404F091250480819091290472
:102A2000892B8083ADCF1F93CF93DF93EC01162FBB
:102A30008D8D9E8D892BB1F12DA93EA94FA958AD41
:102A400060E074E284EF90E00E94362A2051310960
:102A50004109510956954795379527952093B80018
:102A600066EA111167EACE010E9480138D8D9E8D5A
:102A7000892B41F129AD3AAD4BAD5CAD60E074E21C
:102A800084EF90E00E94362A205131094109510912
:102A900056954795379527952093B800DF91CF91AC
:102AA0001F9108958B8D9C8D892B21F08EAD9FAD4C
:102AB0000E94E00AEFA5F8A990818CA9809589234E
:102AC0008083CECFEFA5F8A980819CA9892B808334
:102AD000E5CF90E080E00895DC01AA0FBB1FA95D5F
:102AE000BD4FFC01EE0FFF1FE75DFD4F2D913C91A7
:102AF00040815181240F351FFC01EE0FFF1FE55D62
:102B0000FD4F80819181820F931F08952091FB03D7
:102B10003091FC03C901079697FD079623E0959530
:102B200087952A95E1F72091F9033091FA03829F66
:102B3000A001839F500D929F500D112470E060E022
:102B400080911404909115040C94022EFC010190C4
:102B50000020E9F73197AF01481B590BBC0185EF05
:102B600093E00C945307CF93DF930E94F00DEC0198
:102B700084E591E00E94A6158C0F9D1FDF91CF91F7
:102B800008958F929F92AF92BF920F931F93CF930E
:102B9000DF93CDB7DEB7A1970FB6F894DEBF0FBEB7
:102BA000CDBF19A2423008F44AE08E010F5D1F4FDD
:102BB000842E912CB12CA12CA50194010E94362ABF
:102BC000E62FB901CA01EA30F4F4E05DD801EE93D2
:102BD0008D01232B242B252B79F790E080E0109793
:102BE00019F0CD010E94A615A1960FB6F894DEBF8C
:102BF0000FBECDBFDF91CF911F910F91BF90AF90CE
:102C00009F908F900895E95CE1CF4F925F926F9211
:102C10007F928F929F92AF92BF92CF92DF92EF926C
:102C2000FF92CF93DF936B017C01D42FAC019B010A
:102C30000E94A52C882391F087E591E0DF91CF9148
:102C4000FF90EF90DF90CF90BF90AF909F908F90CC
:102C50007F906F905F904F900C94A61526013701DE
:102C6000E89477F82FEF3FEF4FE75FE7C301B2013A
:102C70000E94A52C81110DC02FEF3FEF4FE75FE7BA
:102C8000C301B2010E94D42A18161CF48BE591E00E
:102C9000D5CF2FEF3FEF4FE75FE4C701B6010E94AA
:102CA000332C18161CF48FE591E0C8CF2FEF3FEFBF
:102CB0004FE75FECC701B6010E94D42A87FDF3CF2E
:102CC00020E030E0A901C701B6010E94D42A912C6E
:102CD000812C87FF08C08DE20E940B0E4C01F7FA91
:102CE000F094F7F8F094CD2FA12C60E070E080E034
:102CF0009FE3AD1640F420E030E040E251E40E9452
:102D0000D92AA394F6CFA70196010E94682A2B0125
:102D10003C010E94522B5B016C014AE00E94C115EC
:102D20007C01E80CF91CDD23B1F1C601B5010E945C
:102D3000812B9B01AC01C301B2010E94672A4B01A8
:102D40005C018EE20E940B0EE80EF91EC15018F1D4
:102D500020E030E040E251E4C501B4010E94382C8B
:102D60002B013C010E94522B4B01B12CA12C4AE0BB
:102D7000C501B4010E94C115E80EF91EC501B401D8
:102D80000E94812B9B01AC01C301B2010E94672A02
:102D90004B015C01DBCFC701DF91CF91FF90EF903A
:102DA000DF90CF90BF90AF909F908F907F906F906B
:102DB0005F904F9008950E94FD2D85ED8093BC009B
:102DC0008091A5019091A601A091A701B091A801C1
:102DD0000796A11DB11D23E0B695A79597958795F8
:102DE0002A95D1F72091BC0024FD03C01092EE017A
:102DF00008954091A5015091A6016091A70170919D
:102E0000A801452B462B472B69F30097A105B10577
:102E100041F025E32A95F1F700000197A109B109D6
:102E2000E1CF8091A4010C943E11E091DC03F0917C
:102E3000DD03EE0FFF1FEC51FE4F6591749185E0AD
:102E400091E00E947927E091DE03F091DF03EE0F1D
:102E5000FF1FE053FE4F659174918BE091E00E945B
:102E60007927E091DE03F091DF03EA30F10508F005
:102E700053C0E35CF84E0C94BE2C5B1788174717C1
:102E800062176B1774178D1796179F17A81789EB82
:102E900093E09093BE038093BD0388E893E1909301
:102EA000CB038093CA031092BC031092BB03109211
:102EB000C9031092C80381E090E09093D7038093F8
:102EC000D60308958DE791E09093BE038093BD03F0
:102ED00080ED97E0E4CF8EEB90E09093BE0380937B
:102EE000BD0388EE93E0DBCF82E793E09093BE03CF
:102EF0008093BD0384EF91E09093CB038093CA034A
:102F00001092BC031092BB031092C9031092C80325
:102F10001092D7031092D603089580E691E0909323
:102F2000BE038093BD0388EC90E0E6CF80EB90E099
:102F30009093BE038093BD0384E690E0DDCF88E5E7
:102F400090E09093BE038093BD0382E390E0D4CFE2
:102F500083E290E09093BE038093BD0384E190E010
:102F6000CBCF1F920F920FB60F9211242F933F9346
:102F70008F939F93AF93BF93809115029091160208
:102F8000A0911702B09118023091140223E0230F90
:102F90002D3758F50196A11DB11D20931402809381
:102FA000150290931602A0931702B0931802809115
:102FB000190290911A02A0911B02B0911C02019675
:102FC000A11DB11D8093190290931A02A0931B02B8
:102FD000B0931C02BF91AF919F918F913F912F9120
:102FE0000F900FBE0F901F90189526E8230F0296A2
:102FF000A11DB11DD2CF1F920F920FB60F921124B7
:103000002F933F934F935F936F937F938F939F93F0
:10301000AF93BF93EF93FF93E0910301F09104010D
:103020000995FF91EF91BF91AF919F918F917F9102
:103030006F915F914F913F912F910F900FBE0F9025
:103040001F9018951F920F920FB60F9211242F9375
:103050003F934F935F936F937F938F939F93AF9320
:10306000BF93EF93FF93E0910101F0910201099565
:10307000FF91EF91BF91AF919F918F917F916F9150
:103080005F914F913F912F910F900FBE0F901F9026
:1030900018951F920F920FB60F9211242F933F9302
:1030A0004F935F936F937F938F939F93AF93BF9350
:1030B000EF93FF938091B900887F803609F44AC06E
:1030C000F0F5883209F4A7C018F5803109F49BC0E7
:1030D000B8F4882309F4F9C0883009F494C0FF914A
:1030E000EF91BF91AF919F918F917F916F915F9180
:1030F0004F913F912F910F900FBE0F901F901895F9
:10310000883109F488C0803251F78093ED0114C0F2
:10311000803409F49DC040F48033B9F38833F9F664
:103120008093ED0185ECB0C0803509F485C0883509
:1031300009F496C0883499F60E94DD16D0CF8839FC
:1031400009F48CC038F5883729F050F4883611F02E
:10315000803729F683E08093EE011092EC0157C08E
:10316000883809F47BC0803919F0803809F0B7CF6E
:103170008091EC01803208F071C0E091EC0181E0B7
:103180008E0F8093EC018091BB00F0E0E453FE4F82
:1031900080833DC0803B39F0E0F4803A09F479C087
:1031A000883A09F09CCF84E08093EE011092CB0125
:1031B0001092CA01E0912002F091210209958091BC
:1031C000CA0181110FC081E08093CA011092AA0147
:1031D00009C0803C09F4A6CF883C09F4A3CF883B02
:1031E00009F07DCFE091CB0181E08E0F8093CB0180
:1031F000F0E0E655FE4F80818093BB009091CB01BB
:103200008091CA0129C0809113028093BB0085EC94
:103210008093BC0064CF90911202809111029817A4
:1032200058F5E091120281E08E0F80931202F0E0D7
:10323000EF50FE4F8081E9CFE091120281E08E0FC6
:10324000809312028091BB00F0E0EF50FE4F80832C
:1032500090911202809111029817C8F285E8D8CF98
:10326000E091120281E08E0F809312028091BB00E8
:10327000F0E0EF50FE4F80838091F00181115CCF30
:1032800081E08093EF0184EA8093BC001092EE010C
:1032900026CF85EC8093BC001092EE018091EC016A
:1032A000803230F4E091EC01F0E0E453FE4F108204
:1032B0006091EC0170E0E0911E02F0911F028CEC35
:1032C00091E009951092EC010ACF1092ED0134CFF4
:1032D000CF93DF93282F30E0F901EE5EF84F849111
:1032E000F901EE5BF84FD491F901E05AF84FC4911F
:1032F000CC23A1F081110E948007EC2FF0E0EE0FAB
:10330000FF1FE85FF84FA591B491EC91ED2381E0A8
:1033100090E009F480E0DF91CF91089580E090E0A3
:10332000FACFA9EEB3E013961C921E92129748EEC4
:1033300053E060E070E014964D935D936D937C9341
:1033400017978AE191E011969C938E93E5EFF3E055
:103350001382128220E830E03583248380E490E0F9
:10336000978386833187208793878287168A15867D
:1033700014861786168681E0858B848B2FEF3FEFAE
:10338000338B228B318B208B878B108E128E118E7C
:103390008CE291E091838083148E138EB68FA58F7B
:1033A00010A2178E8FEF84A385A386A387A380A77F
:1033B00080E89AE1A6E0B0E085AB96ABA7ABB0AFF2
:1033C00080EA96E8A1E0B0E081AF92AFA3AFB4AFDE
:1033D00080E586AF17AE0895CF93DF93CDB7DEB704
:1033E00065970FB6F894DEBF0FBECDBF789484B555
:1033F000826084BD84B5816084BD85B5826085BDF1
:1034000085B5816085BD80916E00816080936E007E
:103410001092810080918100826080938100809170
:103420008100816080938100809180008160809321
:1034300080008091B10084608093B1008091B000E1
:1034400081608093B00080917A00846080937A00DC
:1034500080917A00826080937A0080917A00816006
:1034600080937A0080917A00806880937A0010922D
:10347000C10062E082E00E94D70762E088E00E941B
:10348000D70762E089E00E94D70762E08AE00E94E5
:10349000D70762E08BE00E94D70760E08CE00E94D3
:1034A000D70761E08DE00E94D707809114049091C6
:1034B0001504892B11F52091FB033091FC03C90100
:1034C000079697FD0796B3E095958795BA95E1F72E
:1034D0002091F9033091FA03AC01429FC001439F50
:1034E000900D529F900D11240E94D82C909315049A
:1034F00080931404892B09F4A8C20E948615209198
:10350000FB033091FC038091F9039091FA03B90118
:10351000213231050CF484C16054710977FF02C077
:103520006F5F7F4F759567958255910997FD01965D
:1035300000E410E022E530E044E559E095958795F8
:103540000E94EA0F82E08093170480911204909108
:103550001304892B09F477C18CE38093160410922D
:103560002302109222021092E6031092E5030E94B9
:10357000201181E597E0909321028093200282E55B
:1035800097E090931F0280931E0280911D0487FD97
:103590001EC061E00E94D70761E080911D040E9477
:1035A000A90761E070E080E090E00E944F0860E0D1
:1035B00080911D040E94A9076AE070E080E090E01D
:1035C0000E944F0861E080911D040E94A90780912C
:1035D000120490911304892B09F4F6C120912A0456
:1035E00030912B0440912C0450912D0460E074E242
:1035F00084EF90E00E94362A205131094109510997
:1036000056954795379527952093B80064E08EE34B
:1036100097E00E94CB126091FB03615085EF93E02D
:103620000E94801364E08AE397E00E94CB128091AD
:10363000170460E1813009F064E185EF93E00E94B6
:10364000801364E086E397E00E94CB128FE88093BA
:1036500032048091F9039091FA038038910509F0C2
:10366000CCC18091FB039091FC038034910509F05B
:10367000D9C180911704813009F0BDC18FE98093D1
:10368000320492E199836AED85EF93E00E94801302
:10369000698185EF93E00E94801361E885EF93E0F4
:1036A0000E9480136091320485EF93E00E948013A2
:1036B00069ED85EF93E00E9480138091170462E228
:1036C000813009F061EF85EF93E00E94801366E09E
:1036D00080E397E00E94CB12809112049091130432
:1036E000892B09F4A8C120912E0430912F04409118
:1036F00030045091310460E074E284EF90E00E9465
:10370000362A205131094109510956954795379577
:1037100027952093B80088E00E946819892B09F04A
:1037200095C181E080930001EE24E394F12C54E1F3
:10373000A52EB12C60E1C62ED12C73E2872E912CE0
:10374000EEE12E2E312C44E650E05B834A83412C7F
:10375000512C320181E00E941308092E000CAA0BA3
:10376000BB0B480E591E6A1E7B1E8A819B810197E6
:103770009B838A83892B71F70E948615F092080437
:10378000E0920704F0920604E0920504B09202046D
:10379000A0920104D0920404C092030481E08093BB
:1037A000090480930A0485E39CE00E94B31590927B
:1037B000020480920104309204042092030492E0F7
:1037C0009093090490930A04C301B2010E94832BD1
:1037D00020E030E048EC52E40E94D92A20E030E0BA
:1037E00040EA50E40E94382C20E030EC4FE754E4EB
:1037F0000E94D92A0CEC13E022E044E00E945B27EF
:10380000C8010E94A61583E39CE00E94B3150E94A4
:10381000E21366E970E080E090E00E944F0893CFE9
:103820006052710977FF02C06F5F7F4F7595679592
:103830008357910997FD019600E210E023E730E0FD
:1038400044E757E07BCE61E080911B040E94D707DC
:1038500061E080911C040E94D70780911B04082E10
:10386000000C990BFC01E05AF84FE491F0E0EE0FE8
:10387000FF1FEA5AF84F2591349130932304209387
:103880002204FC01EE5BF84FE491E0932804809160
:103890001C04082E000C990BFC01E05AF84FE4912F
:1038A000F0E0EE0FFF1FEA5AF84FA591B491B093E4
:1038B0002504A0932404FC01EE5BF84FE491E0930F
:1038C00029048C91E82BEC938091100490911104C1
:1038D000892B09F436C05FB75983F89480911D0293
:1038E000811127C0EAE6F7E08491ECE4F7E09491D7
:1038F000E82FF0E0EE0FFF1FEA5DF84FA591B491BD
:10390000EC91E92321F461E08AE00E94A90761E0DB
:103910008AE00E94D7078CB580618CBD8CB580642D
:103920008CBD61E08DE00E94D70761E08BE00E94D2
:10393000D70780911D028F5F80931D0289818FBF01
:1039400024CE61E0809119040E94D70761E0809144
:103950001A040E94D70780911904082E000C990BB5
:10396000FC01E05AF84FE491F0E0EE0FFF1FEA5A35
:10397000F84F2591349130931F0420931E04FC01CD
:10398000EE5BF84FE491E093260480911A04082E30
:10399000000C990BFC01E05AF84FE491F0E0EE0FB7
:1039A000FF1FEA5AF84FA591B491B0932104A09358
:1039B0002004FC01EE5BF84FE491E09327048C9126
:1039C000E095E823EC93E1CD8091100490911104EF
:1039D000892B31F080913304909134040E94E00AE5
:1039E000E0912404F0912504908180912904809530
:1039F000892380830BCE8FEC42CE80369105A9F4CB
:103A00008091FB039091FC03409791F480911704FF
:103A1000813031F480E180933204E2E0E98333CEF7
:103A20008FEAF9CFF2E0F9832ECE22E029832BCE64
:103A300032E0398328CEE0912404F091250480817E
:103A400090912904892B808366CEFFCF89E00E9464
:103A50006819892B09F070C083E08093000160E051
:103A60008CE00E94D707EE24E394F12C0AE1802E2B
:103A7000912C80E1A82EB12C93E2C92ED12C2EE1FD
:103A8000622E712C32E0532E61E08DE00E94A90776
:103A900080E00E9413089B838A830E948615F0921F
:103AA0000804E0920704F0920604E0920504909264
:103AB000020480920104B0920404A092030481E005
:103AC0008093090480930A0486E29CE00E94B31567
:103AD000D0920204C0920104709204046092030424
:103AE0005092090450920A04EA81FB81BF01FF0F42
:103AF000880B990B0E94832B20ED3CEB49EB5BE399
:103B00000E94382C0CEC13E022E044E00E945B277A
:103B1000C8010E94A61584E29CE00E94B3150E9491
:103B2000E21360E08DE00E94A90766E970E080E0A2
:103B300090E00E944F08A8CF8AE00E946819892B64
:103B400009F074C083E08093000161E08CE00E9482
:103B5000D70760E08CE00E94A907EE24E394F12CE3
:103B60007AE1872E912CE0E1AE2EB12CF3E2CF2E3C
:103B7000D12CAEE16A2E712CB2E05B2E61E08DE0BB
:103B80000E94A90780E00E9413089B838A830E94F9
:103B90008615F0920804E0920704F0920604E09281
:103BA00005049092020480920104B0920404A09251
:103BB000030481E08093090480930A0486E19CE079
:103BC0000E94B315D0920204C092010470920404C2
:103BD000609203045092090450920A042A813B81A6
:103BE000B901330F880B990B0E94832B20E133EC32
:103BF00046E55DE30E94382C0CEC13E021E044E044
:103C00000E945B27C8010E94A61584E19CE00E94E7
:103C1000B3150E94E21360E08DE00E94A90766E9F7
:103C200070E080E090E00E944F08A8CF90E080E034
:103C30000E94B7298A3008F083E090E09093DF0378
:103C40008093DE0381E090E00E94B7298A3008F07B
:103C500083E090E09093DD038093DC0382E090E0CA
:103C60000E94B729811181E090E09093DB0380935B
:103C7000DA0383E090E00E94B729833008F081E006
:103C800090E09093D9038093D80383E08093000160
:103C900087E996E090930201809301018091690089
:103CA0008C7F826080936900E89A0E94861511E0FB
:103CB0001093090410930A0481E090E090930804A3
:103CC0008093070490930604809305044AE050E033
:103CD000509302044093010450930404409303045E
:103CE00081E79CE00E94B3158AE090E09093020483
:103CF0008093010489E190E090930404809303048D
:103D000083E69CE00E94B315EAE0F0E0F093020441
:103D1000E093010483E290E0909304048093030411
:103D200088E59CE00E94B3152AE030E0309302045D
:103D3000209301048DE290E09093040480930304A7
:103D400085E49CE00E94B3150E94E2136CED75E0DF
:103D500080E090E00E944F080E94861510930904AD
:103D600010930A040E94151761E08DE00E94A907D4
:103D70008091D6039091D703019701F561E08CE023
:103D80000E94D70760E08CE00E94A90710922402ED
:103D9000E091DC03F091DD03EA30F10508F043C067
:103DA000EC52F14E0C94BE2CE31E7524A324CF24B8
:103DB000F9242525512577259F25CE2560E08CE027
:103DC0000E94D707E3CF8CE796E09093E1038093BE
:103DD000E00380917A00887F80937A0080917A0056
:103DE000876080937A0049E252E05B834A830BE369
:103DF0001BE780E00E941308EA81FB818193919385
:103E0000FB83EA83C8010197F1F78091240288239C
:103E100019F01092240207C029EB33E04A815B813C
:103E20002417350731F760E08DE00E94A9070E9452
:103E30001517E9E2F2E00FEF13E01B821A8240E06F
:103E400050E0BA01819191916C01092E000CEE08AD
:103E5000FF084C0D5D1D6E1D7F1D801791070CF432
:103E60008C012A813B812817390714F49B838A83AC
:103E700089EB93E08E179F0729F7EA81FB81F09386
:103E80002602E09325021093280200932702CB011B
:103E9000BA01665F7F4F8F4F9F4F24E130E040E0D3
:103EA00050E00E94CD293093D5032093D403809114
:103EB000DE039091DF0302970CF071C0C8014497B4
:103EC0006AE070E00E94AA2C2AE0269FC001279F8A
:103ED000900D112497FD97C69093BC038093BB036C
:103EE0008A819B8144966AE070E00E94AA2C6F5FF1
:103EF0007F4F2AE0269FC001279F900D11248D3F00
:103F0000F3E09F070CF084C69093BE038093BD033B
:103F10006091BD037091BE03072E000C880B990BB6
:103F20000E94832B4B015C016091BB037091BC0329
:103F3000072E000C880B990B0E94832B6B017C01D0
:103F40008091D6039091D703019709F064C620E1D0
:103F500033EC46E55DE3C501B4010E94382C20E056
:103F600030E048EC52E40E94382C0E944B2B7093B6
:103F7000CB036093CA0320E133EC46E55DE3C70160
:103F8000B6010E94382C20E030E048EC52E40E9458
:103F9000382C0E944B2B7093C9036093C80381E3B4
:103FA00090E09093BA038093B9032A813B81200F5C
:103FB000311FC90137FD019695958795E9E8F2E033
:103FC00041E350E04639510509F44AC6A091DA03AD
:103FD000B091DB0361917191AB2B09F035C6681785
:103FE00079070CF03AC660817181681779070CF483
:103FF00034C65093BA034093B90381E08093C7035A
:104000004A815B81401B510B4630510514F41092DC
:10401000C703C901880F991F280F391F37FF02C036
:104020002F5F3F4F8901159507951C861D861E86BB
:104030001F861B821A82C12CD12C76011D821C8204
:10404000188A198A1A8A1B8A198251E05C8B2224E9
:104050002394312CC1010E946C154C01C1010196C1
:104060009F838E839C89992309F40CC60815190532
:104070000CF45CC68E819F810E946C159D8B8C8B8D
:10408000081719070CF055C65801A818B908B5014A
:104090000B2C000C880B990B0E94832B2B013C01ED
:1040A0006C897D89601B710B6A0D7B1D072E000CCE
:1040B000880B990B0E94832B9B01AC01C301B201B9
:1040C0000E94D92A4B015C01B101330C880B990B7A
:1040D0000E94832B9B01AC01C501B4010E94682A98
:1040E000688779878A879B87E981EE2309F4C1C5B0
:1040F000288939894A895B890E94672A6C877D876C
:104100008E879F872C813D812F5F3F4F3D832C837E
:104110001C8A91E099832E803F80E6EC2E163104B4
:1041200009F098CF2C813D81B901330F880B990B91
:104130000E94832B9B01AC016C857D858E859F85BC
:104140000E94D92A4B015C01E091DC03F091DD0370
:10415000EE0FFF1FEE0FFF1FEC57F34F2591359128
:10416000459154910E94382C20E030E048EC51E415
:104170000E94D92A9B01AC0160E070E080E89FE3D7
:104180000E94D92A6093C3037093C4038093C5032C
:104190009093C6034A815B81BA01550F880B990B36
:1041A0000E94832B9B01AC01C701B6010E94D92A52
:1041B00020E030E048EC52E40E94382CA501940144
:1041C0000E94D92A6093BF037093C0038093C103F8
:1041D0009093C2030E94861581E090E090930804BA
:1041E00080930704909306048093050486E590E08D
:1041F000909302048093010410920404109203042B
:104200008CEA9CE00E94B31501E010E027E330E067
:1042100049E050E06AE170E085EF93E00E9499097F
:1042200023E030E049E050E06FE770E085EF93E095
:104230000E94990923E030E04DE350E06FE770E021
:1042400085EF93E00E94990927E030E049E050E0D3
:1042500068E170E085EF93E00E94E20922E030E03F
:1042600044E250E068E170E085EF93E00E94E209EB
:1042700027E030E04FE350E068E170E085EF93E045
:104280000E94E20923E030E049E050E063E370E09F
:1042900085EF93E00E94E20923E030E04FE350E035
:1042A00063E370E085EF93E00E94E20923E030E0F1
:1042B00049E050E06CE470E085EF93E00E94E20991
:1042C00023E030E04FE350E06CE470E085EF93E0F2
:1042D0000E94E20923E030E049E050E065E670E04A
:1042E00085EF93E00E94E20923E030E04FE350E0E5
:1042F00065E670E085EF93E00E94E20925E030E09A
:1043000049E050E06BE770E085EF93E00E94E2093E
:1043100025E030E04FE350E06BE770E085EF93E09D
:104320000E94E209EAE1F0E0FB83EA8301E010E0A9
:1043300022E030E044E250E06A817B8185EF93E047
:104340000E94E2092A813B812B5F3F4F3B832A83F6
:104350002338310559F746E650E05B834A837AE01B
:10436000E72EF12C01E010E022E030E0A7016A81A5
:104370007B8185EF93E00E94990955E0E50EF11CE1
:1043800081E4E816F10471F7EA81FB817997FB83F8
:10439000EA837B9721F71B821A82E090BB03F0909F
:1043A000BC030F2C000C000B110B2090B9033090B4
:1043B000BA032A813B81220E331E4090BD035090E8
:1043C000BE03052C000C660877084E185F08600ACB
:1043D000710AF101EE0FFF1FE953FE4F2081318179
:1043E000032E000C440B550B2E193F09400B510BAB
:1043F000AAECBFEF0E94FA29A30192010E94CD29E5
:1044000049015A018FE3880E911CA11CB11C90E454
:1044100089169104A104B1042CF05FE3852E912C40
:10442000A12CB12CE9E08E169104A104B1042CF466
:1044300049E0842E912CA12CB12CCA80DB80FCE1B8
:10444000CF0ED11CF101EE0FFF1FEB53FE4F208169
:104450003181032E000C440B550B2E193F09400BE4
:10446000510BAAECBFEF0E94FA29A30192010E940E
:10447000CD29BA01A901415C5F4F6F4F7F4F403496
:1044800051056105710524F04FE350E060E070E0F4
:10449000493051056105710524F449E050E060E0C0
:1044A00070E08A819B814B96EE24E394F12C840189
:1044B0009601BC0185EF93E00E946F0E2A813B813B
:1044C0002F5F3F4F3B832A832336310509F065CFA9
:1044D00082E090E09093020480930104109204041F
:1044E000109203048BE091E00E94A6158091D803FE
:1044F0009091D903892B01F501E010E02BE130E028
:1045000047E050E070E060E085EF93E00E94E20950
:1045100022E030E045E050E070E060E085EF93E0BD
:104520000E94990922E030E045E050E06AE170E045
:1045300085EF93E00E94990982E290E09093020453
:1045400080930104109204041092030485E091E02A
:104550000E94A6158091D8039091D903019701F587
:1045600001E010E021E230E047E050E060E270E07E
:1045700085EF93E00E94E20922E030E045E050E060
:1045800060E270E085EF93E00E94990922E030E05C
:1045900045E050E060E470E085EF93E00E94990907
:1045A0008BE490E090930204809301041092040441
:1045B000109203048091DA039091DB03892B09F0B8
:1045C000BEC388E10E940B0E8091D8039091D9035D
:1045D000029701F501E010E02DE030E047E050E007
:1045E00067E470E085EF93E00E94E20922E030E0AA
:1045F00045E050E067E470E085EF93E00E949909A0
:1046000022E030E045E050E063E570E085EF93E0C4
:104610000E9499096091D4037091D503072E000C74
:10462000880B990B0E94832B2091D6033091D703DE
:104630002130310509F085C320E133EC46E55DE327
:104640000E94382C20E030E040E251E40E94D92A58
:104650006B017C0120E030E040E251E40E94D42A6A
:104660000CEC13E022E087FF21E044E0C701B60133
:104670000E945B2782E690E09093020480930104FD
:1046800010920404109203048CEC93E00E94A6158F
:104690006091CA037091CB03072E000C880B990B15
:1046A0000E94832B20E030E048EC52E40E94D92A9B
:1046B0002091DE033091DF030CEC13E02130310553
:1046C00009F444C32091DE033091DF032530310526
:1046D0000CF03CC321E044E00E945B2710920204EE
:1046E0001092010489E090E0909304048093030405
:1046F0008CEC93E00E94A6156091CA037091CB03E5
:104700008091C8039091C903680F791F072E000C90
:10471000880B990B0E94832B20E030E048E453E49F
:104720000E94D92A2091DE033091DF030CEC13E0C4
:104730002130310509F40CC32091DE033091DF03F1
:10474000253031050CF004C321E044E00E945B27D2
:10475000109202041092010481E290E0909304040C
:10476000809303048CEC93E00E94A6156091C8032B
:104770007091C903072E000C880B990B0E94832BA4
:1047800020E030E048EC52E40E94D92A2091DE0378
:104790003091DF030CEC13E02130310509F4DAC26B
:1047A0002091DE033091DF03253031050CF0D2C2B9
:1047B00021E044E00E945B27109202041092010461
:1047C00089E390E090930404809303048CEC93E0DD
:1047D0000E94A6158091C703F12CE12C8111BCC267
:1047E00008E010E028E130E04EE050E06CE570E0D9
:1047F00085EF93E00E94040F8CE590E09093020413
:10480000809301048EE090E090930404809303046D
:1048100082EC9CE00E94F00D0E94E2138091E20382
:104820009091E30318161906A4F58091E203909184
:10483000E3032091E0033091E103821B930B9093FB
:10484000E3038093E2038091E2039091E30397FFF7
:1048500020C06091DE037091DF0390E080E00E9451
:10486000BF296091DC037091DD0381E090E00E943C
:10487000BF296091DA037091DB0382E090E00E942F
:10488000BF296091D8037091D90383E090E00E9422
:10489000BF298091E403882309F4F4C2F12CE12CB0
:1048A00008E010E028E130E04BE050E06AE270E020
:1048B00085EF93E00E94040F8AE290E09093020457
:1048C000809301044BE050E05093040440930304B0
:1048D00089EC9CE00E94F00D0E94E2136AE070E017
:1048E00080E090E00E944F08D4CF8CE593E0909355
:1048F000E1038093E00380917A00887F80937A00BF
:1049000080917A00876080937A0089E292E09B83AD
:104910008A830BE41CE380E00E941308EA81FB8198
:1049200081939193FB83EA83C8010197F1F780910A
:10493000240281116ECA29EB33E04A815B8124177E
:10494000350749F770CA8CEC91E09093E1038093AE
:10495000E00380917A00887F80937A0080917A00CA
:10496000876080937A0089E292E09B838A830BE5DB
:104970001DE180E00E941308EA81FB8181939193FD
:10498000FB83EA83C8010197F1F78091240281112A
:104990004ACA29EB33E02E173F0759F744CA8CED7A
:1049A00090E09093E1038093E00380917A00887F08
:1049B00080937A0080917A00876080937A0049E240
:1049C00052E05B834A8303EB1AE080E00E94130805
:1049D000EA81FB8181939193FB83EA83C80101976C
:1049E000F1F78091240281111ECAE95BF34069F757
:1049F0001ACA8CE890E09093E1038093E0038091E1
:104A00007A00887F80937A0080917A008760809313
:104A10007A0049E252E05B834A8307E714E080E0D2
:104A20000E941308EA81FB8181939193FB83EA83BF
:104A3000C8010197F1F7809124028111F4C929EB93
:104A400033E02E173F0759F7EEC984E690E09093C4
:104A5000E1038093E00380917A00887F80937A005D
:104A600080917A00876080937A0049E252E05B830C
:104A70004A8307E511E080E00E941308EA81FB8188
:104A800081939193FB83EA83C8010197F1F78091A9
:104A900024028111C8C929EB33E02E173F0759F7CB
:104AA000C2C94CE450E05093E1034093E00380918D
:104AB0007A00887F80937A0080917A008660809364
:104AC0007A0089E292E09B838A8307E510E080E028
:104AD0000E941308EA81FB8181939193FB83EA830F
:104AE000C8010197F1F7E95BF34089F79CC984E4B9
:104AF00090E09093E1038093E00380917A00887FB7
:104B000080937A0080917A00856080937A0049E2F0
:104B100052E05B834A8303E210E080E00E941308C6
:104B2000EA81FB8181939193FB83EA83C80101971A
:104B3000F1F729EB33E02E173F0779F774C940E40A
:104B400050E05093E1034093E00380917A00887F26
:104B500080937A0080917A00846080937A0089E261
:104B600092E09B838A8380E00E941308EA81FB81A4
:104B700081939193FB83EA838BE090E00197F1F7B7
:104B80000000000000000000000000000000000025
:104B900029EB33E02E173F0731F745C94EE350E0CC
:104BA0005093E1034093E00380917A00887F8093E3
:104BB0007A0080917A00826080937A0089E292E0A4
:104BC0009B838A8380E00E941308EA81FB818193A2
:104BD0009193FB83EA8300000000000000000000C6
:104BE00000000000000000000000000000000000C5
:104BF0000000000000000000000000000000E95B71
:104C0000F34001F710C91092BC031092BB0368C9AE
:104C10008FEF93E079C920ED3CEB49EB5BE3C501F5
:104C2000B4010E94382C20E030E048EC52E40E94AD
:104C3000382C0E944B2B7093CB036093CA0320ED5A
:104C40003CEB49EB5BE39BC98617970734F4608123
:104C50007181861797070CF0CCC94F5F5F4FB2C9BF
:104C600084E690E09093BA038093B9031092C7034F
:104C7000C7C93885388B4985498B5A855A8B8B85AE
:104C80008B8B46CA801691060CF445CA8E819F8193
:104C90000E946C155C01801791070CF03CCAE981F9
:104CA000EE2309F449C0801A910AB401092C000CC2
:104CB000880B990B0E94832B2B013C01B8016A19C8
:104CC0007B09680D791D072E000C880B990B0E943B
:104CD000832B9B01AC01C301B2010E94D92A4B0175
:104CE0005C01B101330C880B990B0E94832B9B0153
:104CF000AC01C501B4010E94682A288539854A851E
:104D00005B850E94672A9B01AC01C701B6010E9426
:104D1000682A6B017C012A813B812F5F3F4F3B83D7
:104D20002A8331E03C8B41E04983F5C951E05C8B3B
:104D3000F2C981E08C8BEFC991E09C8BECC989E1D1
:104D400041CC20ED3CEB49EB5BE37ACC22E0C3CCD9
:104D500022E0FBCC22E02DCD09E010E029E130E09B
:104D60004CE050E06BE570E085EF93E00E94040FAB
:104D70008CE590E090930204809301048DE090E034
:104D80009093040480930304C090C303D090C403A1
:104D9000E090C503F090C60320E030E048EC52E418
:104DA000C701B6010E94D42A87FF33C041E050E01A
:104DB000C701B6010E9405168FEB9CE00E94F00D22
:104DC000F12CE12C0AE010E029E130E045E150E06F
:104DD00061E670E085EF93E00E94040F82E690E0C8
:104DE000909302048093010487E190E0909304047F
:104DF000809303046091BF037091C0038091C1034D
:104E00009091C20341E050E00E94051684EB9CE0C3
:104E100001CD20E030E04AE754E4C701B6010E942A
:104E2000D42A87FF09C050E040E0C701B6010E94C4
:104E300005168CEB9CE0C2CF20E030E04AE754E45A
:104E4000C701B6010E94D92A4B015C0120E030E481
:104E50004CE156E4C701B6010E94D42A87FF09C07D
:104E600042E050E0C501B4010E94051689EB9CE0C8
:104E7000A5CF41E050E0C501B4010E94051686EBC4
:104E80009CE09CCF80E090E0892B11F40C94B21E42
:104E90000E9400000C94B21E8CE291E09093F60305
:104EA0008093F5038091140490911504009711F0FC
:104EB0000C94742D0895EF920F931F93CF93DF936B
:104EC000E80134E047FD34E1042E000C550B57FF98
:104ED00003C0519541955109E32E022F242FAE01B5
:104EE0000E948027CE01DF91CF911F910F91EF900B
:104EF0000895FB01DC0105900D920020E1F7089573
:104F0000A9E0B0E0E6E8F7E20C94052A6A01F22E87
:104F1000B02E102FFBE3AF2EA01608F41BE31F5F8B
:104F2000012F27E0AE014F5F5F4F0E94DF28BC01D9
:104F30008981982F9970913009F43FC09BE2E1FC80
:104F400004C09E2D9170E0FC3AC05E2D5071E82F98
:104F5000E87083FF46C084E0911101C083E0EF2D2B
:104F6000E81B8F1508F0E0E0D6018E2F20E25523D4
:104F700051F1992329F0D6019C93C60101966C0149
:104F800096012D5F3F4FE2FE24C08EE4D6018C9344
:104F900091E411969C93119712968C93D9018E2FC0
:104FA00090E281111BC0E20FF32FF11D10828EEFF2
:104FB0009FEF2996ECE00C94212A9DE2C6CF90E267
:104FC000C4CF2D9381508111FCCFCE0ED11CE0E0D7
:104FD000D0CF8EE6D6018C9391E6DBCF9D938150A6
:104FE000E0CF482F447082FF3DC084E0911101C0A2
:104FF00083E08F1510F4EF2DE81BD6018E2F20E2F1
:10500000552309F1992329F0D6019C93C6010196F5
:105010006C0196012D5F3F4FE2FE1BC089E4D60173
:105020008C938EE411968C93119786E412968C9350
:10503000D9018E2F90E2882309F4B5CF9D9381503A
:10504000FACF2D9381508111FCCFCE0ED11CE0E020
:10505000D9CF89E6D6018C938EE611968C93119761
:1050600086E6E4CF9B0177FF02C030E020E0A1E0BC
:10507000B0E0911102C0B0E0A0E0F9013196AE0FAE
:10508000BF1F8B2C912CBB2009F461C05401EFEFA2
:10509000AE1ABE0AAA0DBB1DFA161B0619F014F0B3
:1050A0004F2D4A1B511188C0E3FC59C07601A42F33
:1050B000B0E2A1114FC0C40ED11C992309F45BC00A
:1050C00040E0D6011196F60190836D01552309F455
:1050D00048C0012F060F9A81582F507184FF03C0DA
:1050E000913309F4015010160CF047C0093008F054
:1050F00008E0EEE2FE2E5B01A01AB1088501919452
:10510000819491082F3F320729F4D601FC92F601D1
:1051100031966F016217730794F1021713077CF53C
:10512000DB01A21BB30BAA24A394B12CAC0EBD1EB1
:10513000AA0DBB1D11968C9121503109D6011196F3
:1051400028153905F4F0F60180836D01DBCFB12C11
:10515000A12CA0CFF701B1937F01A150AACF91114B
:10516000B0CFD601942F50E302C05D9391509111BE
:10517000FCCFC40ED11C40E0ACCF01E0BACF80E33D
:10518000DBCF6217730731F4963388F4953311F44B
:10519000552369F0F6018083FD01842F90E281118F
:1051A00008C0A40FB11D1C9290E080E002CF81E303
:1051B000F1CF91938150F3CF911183CF8ACF2830D3
:1051C00008F027E03327DA01990F311D87FD916040
:1051D00000966105710539F432602E5F3D9330E32E
:1051E0002A95E1F708959F3F30F0803871056105F9
:1051F00009F03C5F3C5F3D93913008F08068911D61
:10520000DF93CF931F930F93FF92EF92192F987F05
:105210009695E92F96959695E90FFF27EE53FF4F48
:1052200099273327EE24FF24A701E701059008946E
:10523000079428F4360FE71EF81E491F511D660F0C
:10524000771F881F991F0694A1F70590079428F4EB
:10525000E70EF81E491F561FC11D770F881F991FA3
:10526000661F0694A1F70590079428F4F80E491FCD
:10527000561FC71FD11D880F991F661F771F0694E1
:10528000A1F70590079420F4490F561FC71FD81F98
:10529000990F661F771F881F0694A9F784911095B0
:1052A000177041F0D695C79557954795F794E794B1
:1052B0001A95C1F7E8E6F0E06894159015913591DC
:1052C0006591959105907FE27395E118F10A430B82
:1052D000560BC90BD009C0F7E10CF11E431F561F36
:1052E000C91FD01D7EF4703311F48A95E6CFE8947F
:1052F000015030F0080F0AF40027021708F4202F9D
:105300002395022F7A3328F079E37D932A95E9F7E4
:1053100010C07D932A9589F60694979567953795E1
:1053200017951794E118F10A430B560BC90BD009D6
:1053300098F023957E9173957A3308F070E37C930F
:105340002013B8F77E9170617D9330F0839571E3FF
:105350007D9370E32A95E1F71124EF90FF900F9170
:105360001F91CF91DF91992787FD90950895F99925
:10537000FECF92BD81BDF89A992780B50895262F5A
:10538000F999FECF1FBA92BD81BD20BD0FB6F8942A
:10539000FA9AF99A0FBE01960895052E97FB1EF40E
:1053A00000940E94E42957FD07D00E94362A07FC8A
:1053B00003D04EF40C94E4295095409530952195F6
:1053C0003F4F4F4F5F4F0895909580957095619531
:1053D0007F4F8F4F9F4F08950E94582AA59F900D91
:1053E000B49F900DA49F800D911D11240895B7FFC7
:1053F0000C94EC290E94EC29821B930B08952F92A8
:105400003F924F925F926F927F928F929F92AF9254
:10541000BF92CF92DF92EF92FF920F931F93CF93A1
:10542000DF93CDB7DEB7CA1BDB0B0FB6F894DEBF38
:105430000FBECDBF09942A88398848885F846E845E
:105440007D848C849B84AA84B984C884DF80EE80A8
:10545000FD800C811B81AA81B981CE0FD11D0FB6B1
:10546000F894DEBF0FBECDBFED010895A1E21A2E64
:10547000AA1BBB1BFD010DC0AA1FBB1FEE1FFF1FF8
:10548000A217B307E407F50720F0A21BB30BE40B48
:10549000F50B661F771F881F991F1A9469F760958F
:1054A0007095809590959B01AC01BD01CF01089549
:1054B000A29FB001B39FC001A39F700D811D112455
:1054C000911DB29F700D811D1124911D089550589A
:1054D000BB27AA270E947F2A0C94F92B0E94EB2B52
:1054E00038F00E94F22B20F039F49F3F19F426F493
:1054F0000C94E82B0EF4E095E7FB0C94E22BE92FDB
:105500000E940A2C58F3BA1762077307840795079D
:1055100020F079F4A6F50C942C2C0EF4E0950B2ECB
:10552000BA2FA02D0B01B90190010C01CA01A001F5
:105530001124FF27591B99F0593F50F4503E68F150
:105540001A16F040A22F232F342F4427585FF3CF91
:10555000469537952795A795F0405395C9F77EF462
:105560001F16BA0B620B730B840BBAF09150A1F0AB
:10557000FF0FBB1F661F771F881FC2F70EC0BA0F31
:10558000621F731F841F48F4879577956795B795B9
:10559000F7959E3F08F0B0CF9395880F08F09927B4
:1055A000EE0F9795879508950E94BE2B08F481E031
:1055B00008950E94ED2A0C94F92B0E94F22B58F0CA
:1055C0000E94EB2B40F029F45F3F29F00C94E22B72
:1055D00051110C942D2C0C94E82B0E940A2C68F38A
:1055E0009923B1F3552391F3951B550BBB27AA279C
:1055F00062177307840738F09F5F5F4F220F331FD6
:10560000441FAA1FA9F335D00E2E3AF0E0E832D09D
:1056100091505040E695001CCAF72BD0FE2F29D0A0
:10562000660F771F881FBB1F261737074807AB0772
:10563000B0E809F0BB0B802DBF01FF2793585F4FE7
:105640003AF09E3F510578F00C94E22B0C942D2CEF
:105650005F3FE4F3983ED4F3869577956795B795C9
:10566000F7959F5FC9F7880F911D9695879597F9D4
:105670000895E1E0660F771F881FBB1F621773074D
:105680008407BA0720F0621B730B840BBA0BEE1F62
:1056900088F7E09508950E94522B6894B1110C94FC
:1056A0002D2C08950E94122C88F09F5798F0B92F46
:1056B0009927B751B0F0E1F0660F771F881F991F47
:1056C0001AF0BA95C9F714C0B13091F00E942C2C91
:1056D000B1E008950C942C2C672F782F8827B85FA1
:1056E00039F0B93FCCF3869577956795B395D9F79F
:1056F0003EF490958095709561957F4F8F4F9F4FA9
:105700000895E89409C097FB3EF4909580957095B4
:1057100061957F4F8F4F9F4F9923A9F0F92F96E9FD
:10572000BB279395F695879577956795B795F11172
:10573000F8CFFAF4BB0F11F460FF1BC06F5F7F4F0F
:105740008F4F9F4F16C0882311F096E911C0772321
:1057500021F09EE8872F762F05C0662371F096E82A
:10576000862F70E060E02AF09A95660F771F881FF9
:10577000DAF7880F9695879597F90895990F00089D
:10578000550FAA0BE0E8FEEF16161706E807F90713
:10579000C0F012161306E407F50798F0621B730BAE
:1057A000840B950B39F40A2661F0232B242B252B2F
:1057B00021F408950A2609F4A140A6958FEF811DD2
:1057C000811D089597F99F6780E870E060E0089573
:1057D0009FEF80EC089500240A9416161706180609
:1057E0000906089500240A941216130614060506E5
:1057F0000895092E0394000C11F4882352F0BB0F76
:1058000040F4BF2B11F460FF04C06F5F7F4F8F4FD8
:105810009F4F089557FD9058440F551F59F05F3F13
:1058200071F04795880F97FB991F61F09F3F79F0C2
:1058300087950895121613061406551FF2CF469544
:10584000F1DF08C0161617061806991FF1CF8695C6
:105850007105610508940895E894BB2766277727AA
:10586000CB0197F908950E94BE2B08F48FEF08959D
:105870000E944B2C0C94F92B0E94EB2B38F00E94C9
:10588000F22B20F0952311F00C94E22B0C94E82BD2
:1058900011240C942D2C0E940A2C70F3959FC1F3B7
:1058A000950F50E0551F629FF001729FBB27F00DCE
:1058B000B11D639FAA27F00DB11DAA1F649F662723
:1058C000B00DA11D661F829F2227B00DA11D621F72
:1058D000739FB00DA11D621F839FA00D611D221F2C
:1058E000749F3327A00D611D231F849F600D211D10
:1058F000822F762F6A2F11249F5750409AF0F1F093
:1059000088234AF0EE0FFF1FBB1F661F771F881FFB
:1059100091505040A9F79E3F510580F00C94E22B26
:105920000C942D2C5F3FE4F3983ED4F38695779545
:105930006795B795F795E7959F5FC1F7FE2B880FA1
:10594000911D9695879597F908950E94BE2B880B17
:10595000990B089597FB072E16F4009407D077FD56
:1059600009D00E94C42C07FC05D03EF49095819587
:105970009F4F0895709561957F4F0895EE0FFF1F1B
:105980000590F491E02D0994AA1BBB1B51E107C0BF
:10599000AA1FBB1FA617B70710F0A61BB70B881FBF
:1059A000991F5A95A9F780959095BC01CD0108954E
:1059B0000F931F93CF93DF938230910510F482E011
:1059C00090E0E0913704F091380430E020E0B0E05E
:1059D000A0E0309799F42115310509F44AC0281B3D
:1059E000390B24303105D8F58A819B816115710509
:1059F00089F1FB0193838283FE0111C040815181B3
:105A00000281138148175907E0F04817590799F4A4
:105A1000109761F012960C93129713961C9332967E
:105A2000CF01DF91CF911F910F910895009337041B
:105A300010933804F4CF2115310551F04217530764
:105A400038F0A901DB019A01BD01DF01F801C1CFE6
:105A5000EF01F9CF9093380480933704CDCFFE0146
:105A6000E20FF31F819391932250310939832883E8
:105A7000D7CF2091350430913604232B41F4209167
:105A80001201309113013093360420933504209194
:105A90001001309111012115310541F42DB73EB7A8
:105AA0004091140150911501241B350BE0913504F0
:105AB000F0913604E217F307A0F42E1B3F0B2817D2
:105AC000390778F0AC014E5F5F4F2417350748F077
:105AD0004E0F5F1F5093360440933504819391938A
